{"abi":[{"type":"constructor","inputs":[{"name":"_initialOwner","type":"address","internalType":"address"},{"name":"_settlementToken","type":"address","internalType":"address"},{"name":"_router","type":"address","internalType":"address"},{"name":"_factory","type":"address","internalType":"address"},{"name":"_wNative","type":"address","internalType":"address"},{"name":"_anchorStable","type":"address","internalType":"address"}],"stateMutability":"nonpayable"},{"type":"function","name":"addAdmin","inputs":[{"name":"_admin","type":"address","internalType":"address"}],"outputs":[],"stateMutability":"nonpayable"},{"type":"function","name":"addEmployee","inputs":[{"name":"_employeeId","type":"address","internalType":"address"},{"name":"_companyId","type":"address","internalType":"address"},{"name":"_name","type":"string","internalType":"string"},{"name":"_monthlySalary","type":"uint256","internalType":"uint256"}],"outputs":[],"stateMutability":"nonpayable"},{"type":"function","name":"addSupportedPayoutToken","inputs":[{"name":"token","type":"address","internalType":"address"}],"outputs":[],"stateMutability":"nonpayable"},{"type":"function","name":"agniRouter","inputs":[],"outputs":[{"name":"","type":"address","internalType":"address"}],"stateMutability":"view"},{"type":"function","name":"anchorStable","inputs":[],"outputs":[{"name":"","type":"address","internalType":"address"}],"stateMutability":"view"},{"type":"function","name":"approve","inputs":[{"name":"","type":"address","internalType":"address"},{"name":"","type":"uint256","internalType":"uint256"}],"outputs":[],"stateMutability":"nonpayable"},{"type":"function","name":"balanceOf","inputs":[{"name":"owner","type":"address","internalType":"address"}],"outputs":[{"name":"","type":"uint256","internalType":"uint256"}],"stateMutability":"view"},{"type":"function","name":"calculateEmployeeEligibleWithdrawal","inputs":[{"name":"_employeeId","type":"address","internalType":"address"}],"outputs":[{"name":"","type":"uint256","internalType":"uint256"}],"stateMutability":"view"},{"type":"function","name":"contractOwner","inputs":[],"outputs":[{"name":"","type":"address","internalType":"address"}],"stateMutability":"view"},{"type":"function","name":"depositInvestorLiquidityToken","inputs":[{"name":"amount","type":"uint256","internalType":"uint256"},{"name":"cid","type":"string","internalType":"string"}],"outputs":[],"stateMutability":"nonpayable"},{"type":"function","name":"dexFactory","inputs":[],"outputs":[{"name":"","type":"address","internalType":"address"}],"stateMutability":"view"},{"type":"function","name":"disableCompany","inputs":[{"name":"_companyId","type":"address","internalType":"address"}],"outputs":[],"stateMutability":"nonpayable"},{"type":"function","name":"enableCompany","inputs":[{"name":"_companyId","type":"address","internalType":"address"}],"outputs":[],"stateMutability":"nonpayable"},{"type":"function","name":"getApproved","inputs":[{"name":"tokenId","type":"uint256","internalType":"uint256"}],"outputs":[{"name":"","type":"address","internalType":"address"}],"stateMutability":"view"},{"type":"function","name":"getCompany","inputs":[{"name":"_companyId","type":"address","internalType":"address"}],"outputs":[{"name":"","type":"tuple","internalType":"struct CompanyStorage.Company","components":[{"name":"owner","type":"address","internalType":"address"},{"name":"name","type":"string","internalType":"string"},{"name":"totalSalary","type":"uint256","internalType":"uint256"},{"name":"lockedLiquidity","type":"uint256","internalType":"uint256"},{"name":"rewardBalance","type":"uint256","internalType":"uint256"},{"name":"withdrawnRewards","type":"uint256","internalType":"uint256"},{"name":"status","type":"uint8","internalType":"enum Enums.CompanyStatus"},{"name":"exists","type":"bool","internalType":"bool"}]}],"stateMutability":"view"},{"type":"function","name":"getCompanyCount","inputs":[],"outputs":[{"name":"","type":"uint256","internalType":"uint256"}],"stateMutability":"view"},{"type":"function","name":"getCompanyInfo","inputs":[{"name":"_companyId","type":"address","internalType":"address"}],"outputs":[{"name":"exists","type":"bool","internalType":"bool"},{"name":"name","type":"string","internalType":"string"}],"stateMutability":"view"},{"type":"function","name":"getCompanyLiquidity","inputs":[{"name":"_companyId","type":"address","internalType":"address"}],"outputs":[{"name":"locked","type":"uint256","internalType":"uint256"},{"name":"totalRewards","type":"uint256","internalType":"uint256"},{"name":"withdrawnRewards","type":"uint256","internalType":"uint256"}],"stateMutability":"view"},{"type":"function","name":"getCompanyStatus","inputs":[{"name":"_companyId","type":"address","internalType":"address"}],"outputs":[{"name":"status","type":"uint8","internalType":"enum Enums.CompanyStatus"}],"stateMutability":"view"},{"type":"function","name":"getEmployee","inputs":[{"name":"_employeeId","type":"address","internalType":"address"}],"outputs":[{"name":"","type":"tuple","internalType":"struct EmployeeStorage.Employee","components":[{"name":"employeeAddress","type":"address","internalType":"address"},{"name":"companyId","type":"address","internalType":"address"},{"name":"name","type":"string","internalType":"string"},{"name":"monthlySalary","type":"uint256","internalType":"uint256"},{"name":"daysWorked","type":"uint256","internalType":"uint256"},{"name":"withdrawnAmount","type":"uint256","internalType":"uint256"},{"name":"exists","type":"bool","internalType":"bool"}]}],"stateMutability":"view"},{"type":"function","name":"getEmployeeCount","inputs":[],"outputs":[{"name":"","type":"uint256","internalType":"uint256"}],"stateMutability":"view"},{"type":"function","name":"getEmployeeInfo","inputs":[{"name":"_employeeId","type":"address","internalType":"address"}],"outputs":[{"name":"exists","type":"bool","internalType":"bool"},{"name":"companyId","type":"address","internalType":"address"},{"name":"name","type":"string","internalType":"string"},{"name":"monthlySalary","type":"uint256","internalType":"uint256"},{"name":"daysWorked","type":"uint256","internalType":"uint256"},{"name":"withdrawnAmount","type":"uint256","internalType":"uint256"}],"stateMutability":"view"},{"type":"function","name":"getFeeConfig","inputs":[],"outputs":[{"name":"","type":"tuple","internalType":"struct FeeStorage.FeeConfig","components":[{"name":"platformShare","type":"uint256","internalType":"uint256"},{"name":"companyShare","type":"uint256","internalType":"uint256"},{"name":"investorShare","type":"uint256","internalType":"uint256"},{"name":"feeBps","type":"uint256","internalType":"uint256"}]}],"stateMutability":"view"},{"type":"function","name":"getFeeConfiguration","inputs":[],"outputs":[{"name":"platformShare","type":"uint256","internalType":"uint256"},{"name":"companyShare","type":"uint256","internalType":"uint256"},{"name":"investorShare","type":"uint256","internalType":"uint256"},{"name":"feeBps","type":"uint256","internalType":"uint256"}],"stateMutability":"view"},{"type":"function","name":"getInvestor","inputs":[{"name":"_investorId","type":"address","internalType":"address"}],"outputs":[{"name":"exists","type":"bool","internalType":"bool"},{"name":"deposited","type":"uint256","internalType":"uint256"},{"name":"totalRewards","type":"uint256","internalType":"uint256"},{"name":"withdrawnRewards","type":"uint256","internalType":"uint256"}],"stateMutability":"view"},{"type":"function","name":"getInvestorCount","inputs":[],"outputs":[{"name":"","type":"uint256","internalType":"uint256"}],"stateMutability":"view"},{"type":"function","name":"getPlatformFeeBalance","inputs":[],"outputs":[{"name":"","type":"uint256","internalType":"uint256"}],"stateMutability":"view"},{"type":"function","name":"getReceiptData","inputs":[{"name":"_tokenId","type":"uint256","internalType":"uint256"}],"outputs":[{"name":"","type":"tuple","internalType":"struct ReceiptNFTModule.ReceiptData","components":[{"name":"txType","type":"uint8","internalType":"enum Enums.TxType"},{"name":"amount","type":"uint256","internalType":"uint256"},{"name":"timestamp","type":"uint256","internalType":"uint256"},{"name":"cid","type":"string","internalType":"string"}]}],"stateMutability":"view"},{"type":"function","name":"getSupportedPayoutTokens","inputs":[],"outputs":[{"name":"","type":"address[]","internalType":"address[]"}],"stateMutability":"view"},{"type":"function","name":"getTotalInvestorLiquidity","inputs":[],"outputs":[{"name":"","type":"uint256","internalType":"uint256"}],"stateMutability":"view"},{"type":"function","name":"getTotalLiquidity","inputs":[],"outputs":[{"name":"","type":"uint256","internalType":"uint256"}],"stateMutability":"view"},{"type":"function","name":"initialize","inputs":[{"name":"_initialOwner","type":"address","internalType":"address"}],"outputs":[],"stateMutability":"nonpayable"},{"type":"function","name":"isAdmin","inputs":[{"name":"_admin","type":"address","internalType":"address"}],"outputs":[{"name":"","type":"bool","internalType":"bool"}],"stateMutability":"view"},{"type":"function","name":"isApprovedForAll","inputs":[{"name":"owner","type":"address","internalType":"address"},{"name":"operator","type":"address","internalType":"address"}],"outputs":[{"name":"","type":"bool","internalType":"bool"}],"stateMutability":"view"},{"type":"function","name":"lockCompanyLiquidity","inputs":[{"name":"_amount","type":"uint256","internalType":"uint256"},{"name":"_cid","type":"string","internalType":"string"}],"outputs":[],"stateMutability":"payable"},{"type":"function","name":"lockCompanyLiquidityToken","inputs":[{"name":"amount","type":"uint256","internalType":"uint256"},{"name":"cid","type":"string","internalType":"string"}],"outputs":[],"stateMutability":"nonpayable"},{"type":"function","name":"name","inputs":[],"outputs":[{"name":"","type":"string","internalType":"string"}],"stateMutability":"view"},{"type":"function","name":"onERC721Received","inputs":[{"name":"","type":"address","internalType":"address"},{"name":"","type":"address","internalType":"address"},{"name":"","type":"uint256","internalType":"uint256"},{"name":"","type":"bytes","internalType":"bytes"}],"outputs":[{"name":"","type":"bytes4","internalType":"bytes4"}],"stateMutability":"nonpayable"},{"type":"function","name":"owner","inputs":[],"outputs":[{"name":"","type":"address","internalType":"address"}],"stateMutability":"view"},{"type":"function","name":"ownerOf","inputs":[{"name":"tokenId","type":"uint256","internalType":"uint256"}],"outputs":[{"name":"","type":"address","internalType":"address"}],"stateMutability":"view"},{"type":"function","name":"preferredPayoutToken","inputs":[{"name":"","type":"address","internalType":"address"}],"outputs":[{"name":"","type":"address","internalType":"address"}],"stateMutability":"view"},{"type":"function","name":"preferredPayoutTokenCompany","inputs":[{"name":"","type":"address","internalType":"address"}],"outputs":[{"name":"","type":"address","internalType":"address"}],"stateMutability":"view"},{"type":"function","name":"preferredPayoutTokenInvestor","inputs":[{"name":"","type":"address","internalType":"address"}],"outputs":[{"name":"","type":"address","internalType":"address"}],"stateMutability":"view"},{"type":"function","name":"receiptData","inputs":[{"name":"","type":"uint256","internalType":"uint256"}],"outputs":[{"name":"txType","type":"uint8","internalType":"enum Enums.TxType"},{"name":"amount","type":"uint256","internalType":"uint256"},{"name":"timestamp","type":"uint256","internalType":"uint256"},{"name":"cid","type":"string","internalType":"string"}],"stateMutability":"view"},{"type":"function","name":"registerCompany","inputs":[{"name":"_companyId","type":"address","internalType":"address"},{"name":"_name","type":"string","internalType":"string"}],"outputs":[],"stateMutability":"nonpayable"},{"type":"function","name":"removeAdmin","inputs":[{"name":"_admin","type":"address","internalType":"address"}],"outputs":[],"stateMutability":"nonpayable"},{"type":"function","name":"safeTransferFrom","inputs":[{"name":"from","type":"address","internalType":"address"},{"name":"to","type":"address","internalType":"address"},{"name":"tokenId","type":"uint256","internalType":"uint256"}],"outputs":[],"stateMutability":"nonpayable"},{"type":"function","name":"safeTransferFrom","inputs":[{"name":"from","type":"address","internalType":"address"},{"name":"to","type":"address","internalType":"address"},{"name":"tokenId","type":"uint256","internalType":"uint256"},{"name":"data","type":"bytes","internalType":"bytes"}],"outputs":[],"stateMutability":"nonpayable"},{"type":"function","name":"setApprovalForAll","inputs":[{"name":"","type":"address","internalType":"address"},{"name":"","type":"bool","internalType":"bool"}],"outputs":[],"stateMutability":"nonpayable"},{"type":"function","name":"setCompanyPayoutToken","inputs":[{"name":"_companyId","type":"address","internalType":"address"},{"name":"token","type":"address","internalType":"address"}],"outputs":[],"stateMutability":"nonpayable"},{"type":"function","name":"setInvestorPayoutToken","inputs":[{"name":"token","type":"address","internalType":"address"}],"outputs":[],"stateMutability":"nonpayable"},{"type":"function","name":"setPreferredPayoutToken","inputs":[{"name":"token","type":"address","internalType":"address"}],"outputs":[],"stateMutability":"nonpayable"},{"type":"function","name":"settlementToken","inputs":[],"outputs":[{"name":"","type":"address","internalType":"address"}],"stateMutability":"view"},{"type":"function","name":"supportedPayoutToken","inputs":[{"name":"","type":"address","internalType":"address"}],"outputs":[{"name":"","type":"bool","internalType":"bool"}],"stateMutability":"view"},{"type":"function","name":"supportedPayoutTokens","inputs":[{"name":"","type":"uint256","internalType":"uint256"}],"outputs":[{"name":"","type":"address","internalType":"address"}],"stateMutability":"view"},{"type":"function","name":"supportsInterface","inputs":[{"name":"interfaceId","type":"bytes4","internalType":"bytes4"}],"outputs":[{"name":"","type":"bool","internalType":"bool"}],"stateMutability":"view"},{"type":"function","name":"symbol","inputs":[],"outputs":[{"name":"","type":"string","internalType":"string"}],"stateMutability":"view"},{"type":"function","name":"tokenURI","inputs":[{"name":"tokenId","type":"uint256","internalType":"uint256"}],"outputs":[{"name":"","type":"string","internalType":"string"}],"stateMutability":"view"},{"type":"function","name":"transferFrom","inputs":[{"name":"from","type":"address","internalType":"address"},{"name":"to","type":"address","internalType":"address"},{"name":"tokenId","type":"uint256","internalType":"uint256"}],"outputs":[],"stateMutability":"nonpayable"},{"type":"function","name":"updateCompanyAddress","inputs":[{"name":"_oldCompanyId","type":"address","internalType":"address"},{"name":"_newCompanyId","type":"address","internalType":"address"}],"outputs":[],"stateMutability":"nonpayable"},{"type":"function","name":"updateEmployeeDaysWorked","inputs":[{"name":"_employeeId","type":"address","internalType":"address"},{"name":"_days","type":"uint256","internalType":"uint256"}],"outputs":[],"stateMutability":"nonpayable"},{"type":"function","name":"updateFeeConfig","inputs":[{"name":"_platformShare","type":"uint256","internalType":"uint256"},{"name":"_companyShare","type":"uint256","internalType":"uint256"},{"name":"_investorShare","type":"uint256","internalType":"uint256"},{"name":"_feeBps","type":"uint256","internalType":"uint256"}],"outputs":[],"stateMutability":"nonpayable"},{"type":"function","name":"wNative","inputs":[],"outputs":[{"name":"","type":"address","internalType":"address"}],"stateMutability":"view"},{"type":"function","name":"withdrawAllInvestorLiquidity","inputs":[{"name":"_cid","type":"string","internalType":"string"}],"outputs":[],"stateMutability":"nonpayable"},{"type":"function","name":"withdrawCompanyReward","inputs":[{"name":"_amount","type":"uint256","internalType":"uint256"},{"name":"_cid","type":"string","internalType":"string"}],"outputs":[],"stateMutability":"nonpayable"},{"type":"function","name":"withdrawInvestorReward","inputs":[{"name":"_amount","type":"uint256","internalType":"uint256"},{"name":"_cid","type":"string","internalType":"string"}],"outputs":[],"stateMutability":"nonpayable"},{"type":"function","name":"withdrawPlatformFee","inputs":[{"name":"_amount","type":"uint256","internalType":"uint256"},{"name":"_cid","type":"string","internalType":"string"}],"outputs":[],"stateMutability":"nonpayable"},{"type":"function","name":"withdrawSalary","inputs":[{"name":"_cid","type":"string","internalType":"string"}],"outputs":[],"stateMutability":"nonpayable"},{"type":"function","name":"withdrawSalaryWithSwap","inputs":[{"name":"cid","type":"string","internalType":"string"},{"name":"minOut","type":"uint256","internalType":"uint256"},{"name":"deadline","type":"uint256","internalType":"uint256"}],"outputs":[],"stateMutability":"nonpayable"},{"type":"event","name":"Approval","inputs":[{"name":"owner","type":"address","indexed":true,"internalType":"address"},{"name":"approved","type":"address","indexed":true,"internalType":"address"},{"name":"tokenId","type":"uint256","indexed":true,"internalType":"uint256"}],"anonymous":false},{"type":"event","name":"ApprovalForAll","inputs":[{"name":"owner","type":"address","indexed":true,"internalType":"address"},{"name":"operator","type":"address","indexed":true,"internalType":"address"},{"name":"approved","type":"bool","indexed":false,"internalType":"bool"}],"anonymous":false},{"type":"event","name":"CompanyLiquidityLocked","inputs":[{"name":"company","type":"address","indexed":true,"internalType":"address"},{"name":"amount","type":"uint256","indexed":false,"internalType":"uint256"}],"anonymous":false},{"type":"event","name":"CompanyRegistered","inputs":[{"name":"company","type":"address","indexed":true,"internalType":"address"},{"name":"name","type":"string","indexed":false,"internalType":"string"}],"anonymous":false},{"type":"event","name":"CompanyRewardWithdrawn","inputs":[{"name":"company","type":"address","indexed":true,"internalType":"address"},{"name":"amount","type":"uint256","indexed":false,"internalType":"uint256"}],"anonymous":false},{"type":"event","name":"EmployeeAdded","inputs":[{"name":"employee","type":"address","indexed":true,"internalType":"address"},{"name":"company","type":"address","indexed":true,"internalType":"address"},{"name":"name","type":"string","indexed":false,"internalType":"string"}],"anonymous":false},{"type":"event","name":"EmployeeSalaryWithdrawn","inputs":[{"name":"employee","type":"address","indexed":true,"internalType":"address"},{"name":"amount","type":"uint256","indexed":false,"internalType":"uint256"}],"anonymous":false},{"type":"event","name":"Erc20Initialized","inputs":[{"name":"settlementToken","type":"address","indexed":false,"internalType":"address"},{"name":"agniRouter","type":"address","indexed":false,"internalType":"address"}],"anonymous":false},{"type":"event","name":"FeeConfigUpdated","inputs":[{"name":"platformShare","type":"uint256","indexed":false,"internalType":"uint256"},{"name":"companyShare","type":"uint256","indexed":false,"internalType":"uint256"},{"name":"investorShare","type":"uint256","indexed":false,"internalType":"uint256"},{"name":"feeBps","type":"uint256","indexed":false,"internalType":"uint256"}],"anonymous":false},{"type":"event","name":"InvestorDeposited","inputs":[{"name":"investor","type":"address","indexed":true,"internalType":"address"},{"name":"amount","type":"uint256","indexed":false,"internalType":"uint256"}],"anonymous":false},{"type":"event","name":"InvestorRewardWithdrawn","inputs":[{"name":"investor","type":"address","indexed":true,"internalType":"address"},{"name":"amount","type":"uint256","indexed":false,"internalType":"uint256"}],"anonymous":false},{"type":"event","name":"InvestorWithdrawn","inputs":[{"name":"investor","type":"address","indexed":true,"internalType":"address"},{"name":"amount","type":"uint256","indexed":false,"internalType":"uint256"}],"anonymous":false},{"type":"event","name":"PlatformFeeWithdrawn","inputs":[{"name":"platform","type":"address","indexed":true,"internalType":"address"},{"name":"amount","type":"uint256","indexed":false,"internalType":"uint256"}],"anonymous":false},{"type":"event","name":"PreferredCompanyPayoutTokenSet","inputs":[{"name":"company","type":"address","indexed":true,"internalType":"address"},{"name":"token","type":"address","indexed":false,"internalType":"address"}],"anonymous":false},{"type":"event","name":"PreferredInvestorPayoutTokenSet","inputs":[{"name":"investor","type":"address","indexed":true,"internalType":"address"},{"name":"token","type":"address","indexed":false,"internalType":"address"}],"anonymous":false},{"type":"event","name":"PreferredPayoutTokenSet","inputs":[{"name":"employee","type":"address","indexed":true,"internalType":"address"},{"name":"token","type":"address","indexed":false,"internalType":"address"}],"anonymous":false},{"type":"event","name":"ReceiptMinted","inputs":[{"name":"tokenId","type":"uint256","indexed":true,"internalType":"uint256"},{"name":"to","type":"address","indexed":true,"internalType":"address"},{"name":"txType","type":"uint8","indexed":false,"internalType":"enum Enums.TxType"},{"name":"amount","type":"uint256","indexed":false,"internalType":"uint256"},{"name":"cid","type":"string","indexed":false,"internalType":"string"}],"anonymous":false},{"type":"event","name":"SupportedPayoutTokenAdded","inputs":[{"name":"token","type":"address","indexed":true,"internalType":"address"}],"anonymous":false},{"type":"event","name":"Transfer","inputs":[{"name":"from","type":"address","indexed":true,"internalType":"address"},{"name":"to","type":"address","indexed":true,"internalType":"address"},{"name":"tokenId","type":"uint256","indexed":true,"internalType":"uint256"}],"anonymous":false},{"type":"error","name":"CompanyAlreadyExists","inputs":[]},{"type":"error","name":"CompanyDisabled","inputs":[]},{"type":"error","name":"CompanyNotFound","inputs":[]},{"type":"error","name":"ERC721IncorrectOwner","inputs":[{"name":"sender","type":"address","internalType":"address"},{"name":"tokenId","type":"uint256","internalType":"uint256"},{"name":"owner","type":"address","internalType":"address"}]},{"type":"error","name":"ERC721InsufficientApproval","inputs":[{"name":"operator","type":"address","internalType":"address"},{"name":"tokenId","type":"uint256","internalType":"uint256"}]},{"type":"error","name":"ERC721InvalidApprover","inputs":[{"name":"approver","type":"address","internalType":"address"}]},{"type":"error","name":"ERC721InvalidOperator","inputs":[{"name":"operator","type":"address","internalType":"address"}]},{"type":"error","name":"ERC721InvalidOwner","inputs":[{"name":"owner","type":"address","internalType":"address"}]},{"type":"error","name":"ERC721InvalidReceiver","inputs":[{"name":"receiver","type":"address","internalType":"address"}]},{"type":"error","name":"ERC721InvalidSender","inputs":[{"name":"sender","type":"address","internalType":"address"}]},{"type":"error","name":"ERC721NonexistentToken","inputs":[{"name":"tokenId","type":"uint256","internalType":"uint256"}]},{"type":"error","name":"EmployeeNotFound","inputs":[]},{"type":"error","name":"InsufficientBalance","inputs":[]},{"type":"error","name":"InsufficientLiquidity","inputs":[]},{"type":"error","name":"InvalidAmount","inputs":[]},{"type":"error","name":"InvalidFeeConfiguration","inputs":[]},{"type":"error","name":"InvestorNotFound","inputs":[]},{"type":"error","name":"NotCompany","inputs":[]},{"type":"error","name":"NotEmployee","inputs":[]},{"type":"error","name":"ReentrancyGuardReentrantCall","inputs":[]},{"type":"error","name":"SafeERC20FailedOperation","inputs":[{"name":"token","type":"address","internalType":"address"}]},{"type":"error","name":"TokenNotSupported","inputs":[]},{"type":"error","name":"TransferNotAllowed","inputs":[]},{"type":"error","name":"Unauthorized","inputs":[]},{"type":"error","name":"ZeroAddress","inputs":[]}],"bytecode":{"object":"0x6080604052346105905761566d60c0813803918261001c81610594565b93849283398101031261059057610032816105b9565b9061003f602082016105b9565b9161004c604083016105b9565b91610059606082016105b9565b9361007260a061006b608085016105b9565b93016105b9565b9261007d6040610594565b601081526f11d85a9a52da5d1848149958d95a5c1d60821b60208201526100a46040610594565b600381526223a5a960e91b6020820152815190916001600160401b03821161036557600d5490600182811c92168015610586575b60208310146104895781601f849311610518575b50602090601f83116001146104b2575f926104a7575b50508160011b915f199060031b1c191617600d555b8051906001600160401b03821161036557600e5490600182811c9216801561049d575b60208310146104895781601f84931161041b575b50602090601f83116001146103b5575f926103aa575b50508160011b915f199060031b1c191617600e555b601380546001600160a01b0319166001600160a01b0392909216918217905560017f9b779b17422d0df92223018b32b4d1fa46e071723d6817e2486d003becc55f008190555f9182526016602052604091829020805460ff1916909117905551608081016001600160401b0381118282101761036557606491606091604052611f4081526107d060208201525f60408201520152611f406009556107d0600a555f600b556064600c5560018060a01b03169283158015610399575b8015610388575b61037957601780546001600160a01b031990811686179091556018805482166001600160a01b0393841690811790915560198054831697841697909717909655601a8054821693831693909317909255601b805490921692169190911790555f818152601f60209081526040909120805460ff191660011790555490680100000000000000008210156103655760018201806020558210156103515760205f8190527fc97bfaf2f8ee708c303a06d134f5ecd8389ae0432af62dc132a24118292866bb90920180546001600160a01b0319168217905560408051918252918101929092527f8c10eade84038db95f4ed934d885b1480f62ea43074035f9f1018793fd5dbea191a160405161509f90816105ce8239f35b634e487b7160e01b5f52603260045260245ffd5b634e487b7160e01b5f52604160045260245ffd5b63d92e233d60e01b5f5260045ffd5b506001600160a01b0385161561023b565b506001600160a01b03811615610234565b015190505f80610164565b600e5f9081528281209350601f198516905b81811061040357509084600195949392106103eb575b505050811b01600e55610179565b01515f1960f88460031b161c191690555f80806103dd565b929360206001819287860151815501950193016103c7565b600e5f529091507fbb7b4a454dc3493923482f07822329ed19e8244eff582cc204f8554c3620c3fd601f840160051c8101916020851061047f575b90601f859493920160051c01905b818110610471575061014e565b5f8155849350600101610464565b9091508190610456565b634e487b7160e01b5f52602260045260245ffd5b91607f169161013a565b015190505f80610102565b600d5f9081528281209350601f198516905b81811061050057509084600195949392106104e8575b505050811b01600d55610117565b01515f1960f88460031b161c191690555f80806104da565b929360206001819287860151815501950193016104c4565b600d5f529091507fd7b6990105719101dabeb77144f2a3385c8033acd3af97e9423a695e81ad1eb5601f840160051c8101916020851061057c575b90601f859493920160051c01905b81811061056e57506100ec565b5f8155849350600101610561565b9091508190610553565b91607f16916100d8565b5f80fd5b6040519190601f01601f191682016001600160401b0381118382101761036557604052565b51906001600160a01b03821682036105905756fe60806040526004361015610011575f80fd5b5f5f3560e01c806222ccf81461346257806301ffc9a7146133f457806306080adf14612f3e57806306fdde0314612e99578063081812fc14612e5d578063095ea7b314612e3457806311596a8014612e0c578063150b7a0214612de95780631785f53c14612d6f5780632296f80e14612d2a57806323b872dd14612d1357806324d7806c14612cd657806327d35db714612c6c57806328152e7314612c2c5780632d68efc914612c045780632f89d4a814612b7e578063316506e914612b6157806332648e0914612a3257806335c7e92514612a1557806342842e0e146129e657806342e12c8314612924578063496d25e1146128e75780634c56ed29146128085780634cd995da146127be5780635ac09b2b146126e05780635fbbc0d21461267f57806362bc56e6146125305780636352211e1461250057806364451279146124df578063704802751461247357806370a0823114612422578063737893d7146123cb5780637b9e618d146123a35780637d0ecac9146123165780638453ea99146122d6578063873e038714611f835780638c761f7014611f2a5780638da5cb5b14611f025780638f35a75e14611e735780639085fd3914611b9e5780639172435214611b245780639488d22e14611a9457806395d89b41146119b6578063960524e3146119995780639c8497ea146118a35780639f8316d614611863578063a039cddf146117a1578063a22cb4651461176d578063a3f3a41b146114d3578063a6113c9614611429578063ad452385146111c2578063ad5cb2e11461117b578063b32ede5014610e8e578063b88d4fde14610e66578063b8d8fbb414610e3e578063c22e20b614610e13578063c252b96414610a1c578063c2a63e3b146109ff578063c4d66de81461096b578063c87b56dd1461090e578063c95356fe14610868578063ce606ee01461083f578063e4fd75691461077c578063e985e9c514610724578063f078264014610706578063f22fbf0d146106e8578063f431f103146106bf578063f9ea82321461066e5763fe7d78a914610310575f80fd5b3461066b5761031e3661384e565b9061032833613b33565b610330613bb8565b338352600560205260ff600660408520015460081c161561065c5733835260056020528060046040852001541061064d57335f52600560205280600460405f2001541061063e57335f526005602052600460405f2001610391828254614554565b90553383526005602052600560408420016103ad828254614547565b90556103b98133614f95565b6040518181527f5aeda81453f48138dc47a56ee1e2257044ba095842b028a298439534b246b60a60203392a2601454905f19821461062a57600182016014556040516104048161358b565b600581526020810190828252604081014281526060820192868452858852601560205260408820925160088110156106165790600393929160ff801985541691161783555160018301555160028201550190518051906001600160401b0382116106025761047283546136e5565b601f81116105c7575b50602090601f8311600114610565576104ab929188918361055a575b50508160011b915f199060031b1c19161790565b90555b6040516104bc6020826135c1565b8481523315610546576001600160a01b036104d78433613f57565b1661053257906104f75f51602061504a5f395f51905f5292843333614561565b60405190600582526020820152606060408201528061051b33956060830190613530565b0390a360015f51602061502a5f395f51905f525580f35b6339e3563760e11b85526004859052602485fd5b633250574960e11b85526004859052602485fd5b015190505f80610497565b8388528188209190601f198416895b8181106105af5750908460019594939210610597575b505050811b0190556104ae565b01515f1960f88460031b161c191690555f808061058a565b92936020600181928786015181550195019301610574565b6105f29084895260208920601f850160051c810191602086106105f8575b601f0160051c0190613ecb565b5f61047b565b90915081906105e5565b634e487b7160e01b87526041600452602487fd5b634e487b7160e01b89526021600452602489fd5b634e487b7160e01b84526011600452602484fd5b631e9acf1760e31b5f5260045ffd5b631e9acf1760e31b8352600483fd5b6302de3a2360e61b8352600483fd5b80fd5b506106783661384e565b9061068233613b33565b61068a613bb8565b8034036106b0579061069c9133613c82565b60015f51602061502a5f395f51905f525580f35b63162908e360e11b8352600483fd5b503461066b578060031936011261066b576018546040516001600160a01b039091168152602090f35b503461066b578060031936011261066b576020600454604051908152f35b503461066b578060031936011261066b576020600654604051908152f35b503461066b57604036600319011261066b576040610740613504565b9161074961351a565b9260018060a01b031681526012602052209060018060a01b03165f52602052602060ff60405f2054166040519015158152f35b503461066b57602036600319011261066b576060906040906001600160a01b036107a4613504565b168152600560205220604051906107ba82613554565b80546001600160a01b031682526107d36001820161371d565b60208301526002810154604083015260038101548383019081526004820154926080810193845260e060ff600660058601549560a08501968752015461081e82821660c08601613a40565b60081c16151591015251915190519060405192835260208301526040820152f35b503461066b578060031936011261066b576013546040516001600160a01b039091168152602090f35b503461066b57602036600319011261066b57610882613504565b6013546001600160a01b0316331415806108f7575b6108e9576001600160a01b03165f8181526005602052604090206006015460081c60ff16156108da575f5260056020526108d75f60066040822001613ee1565b80f35b6302de3a2360e61b5f5260045ffd5b6282b42960e81b8252600482fd5b50338252601660205260ff60408320541615610897565b346109675760203660031901126109675761092a600435613f0c565b505f60405161093a6020826135c1565b5261096360405161094c6020826135c1565b5f8152604051918291602083526020830190613530565b0390f35b5f80fd5b3461096757602036600319011261096757610984613504565b61098c613f40565b6001600160a01b03165f8181526016602052604090205460ff166109c4575f908152601660205260409020805460ff19166001179055005b60405162461bcd60e51b8152602060048201526013602482015272105b1c9958591e481a5b9a5d1a585b1a5e9959606a1b6044820152606490fd5b34610967575f366003190112610967576020600854604051908152f35b34610967576020366003190112610967576004356001600160401b03811161096757610a4c9036906004016137ca565b610a55336144f7565b610a5d613bb8565b335f52600760205260405f2090604051610a7681613570565b82546001600160a01b039081168252600184015416602082019081529260ff90600690610aa56002820161371d565b60408501526003810154606085015260048101546080850152600581015460a0850152015416159060c08215910152610e0457610ae13361477a565b8015610df557610afe92610af482614863565b9285979197614554565b958460025410610de657610b3b93610b24610b3693610b1c8861484a565b600354614547565b600355516001600160a01b03166148aa565b6148cf565b610b458333614993565b601454905f198214610ce65760018201601455604051610b648161358b565b600481526020810182815260408201914283526060810192868452855f52601560205260405f209151926008841015610dd25760039360ff801985541691161783555160018301555160028201550190518051906001600160401b038211610dbe57610bd083546136e5565b601f8111610d8e575b50602090601f8311600114610d2b57610c0892915f9183610d205750508160011b915f199060031b1c19161790565b90555b60405190610c1a6020836135c1565b5f82523315610d0d576001600160a01b03610c358433613f57565b16610cfa57610c545f51602061504a5f395f51905f5292843333614561565b604051906004825260208201526060604082015280610c7833956060830190613530565b0390a3335f52601c60205260018060a01b0360405f20541661012c4201804211610ce657610ca7918333614a00565b6040519081527f541f614f44b2fa12a143cae4cccb6b1379a25a7e71401ffa28e52f64e7a85ebd60203392a260015f51602061502a5f395f51905f5255005b634e487b7160e01b5f52601160045260245ffd5b6339e3563760e11b5f525f60045260245ffd5b633250574960e11b5f525f60045260245ffd5b015190508880610497565b90601f19831691845f52815f20925f5b818110610d765750908460019594939210610d5e575b505050811b019055610c0b565b01515f1960f88460031b161c19169055878080610d51565b92936020600181928786015181550195019301610d3b565b610db890845f5260205f20601f850160051c810191602086106105f857601f0160051c0190613ecb565b87610bd9565b634e487b7160e01b5f52604160045260245ffd5b634e487b7160e01b5f52602160045260245ffd5b63bb55fd2760e01b5f5260045ffd5b63162908e360e11b5f5260045ffd5b635d70aba760e11b5f5260045ffd5b34610967576020366003190112610967576020610e36610e31613504565b61477a565b604051908152f35b34610967575f366003190112610967576019546040516001600160a01b039091168152602090f35b3461096757610e8c610e7736613633565b92610e8682848395949561387d565b33614696565b005b34610967576020366003190112610967576004356001600160401b03811161096757610ebe9036906004016137ca565b610ec6613bb8565b335f525f60205260ff600460405f200154161561116c57335f908152602081905260409020600181015460049091015460ff161561116c57335f525f60205280600160405f2001541061063e578060045410610de657335f525f602052600160405f2001610f35828254614554565b9055610f4381600454614554565b600455610f4f8161484a565b610f598133614f95565b6040518181527f3352c11f42d0e000833029ceed51a96f8dc31113c20eadbd28e72b72d5f6e3d560203392a2601454905f198214610ce65760018201601455604051610fa48161358b565b600381526020810182815260408201914283526060810192868452855f52601560205260405f209151926008841015610dd25760039360ff801985541691161783555160018301555160028201550190518051906001600160401b038211610dbe5761101083546136e5565b601f811161113c575b50602090601f83116001146110d95761104892915f91836110ce5750508160011b915f199060031b1c19161790565b90555b6040519061105a6020836135c1565b5f82523315610d0d576001600160a01b036110758433613f57565b16610cfa576110945f51602061504a5f395f51905f5292843333614561565b6040519060038252602082015260606040820152806110b833956060830190613530565b0390a360015f51602061502a5f395f51905f5255005b015190508780610497565b90601f19831691845f52815f20925f5b818110611124575090846001959493921061110c575b505050811b01905561104b565b01515f1960f88460031b161c191690558680806110ff565b929360206001819287860151815501950193016110e9565b61116690845f5260205f20601f850160051c810191602086106105f857601f0160051c0190613ecb565b86611019565b6379d9ea8360e11b5f5260045ffd5b34610967575f36600319011261096757611193613a4c565b805160208083015160408085015160609586015182519586529385019290925283015291810191909152608090f35b34610967576111d03661384e565b906111d9613bb8565b6013546001600160a01b03163381141580611412575b6114045760035482811061063e578261120791614554565b6003556112148282614f95565b7fd116803f8b8538a601b6096e8d1196e3ce3ef43dec6dbbe4cd4e5c69dd171d8b6020604051848152a2601454905f198214610ce6576001820160145560405161125d8161358b565b600781526020810182815260408201914283526060810192868452855f52601560205260405f209151926008841015610dd25760039360ff801985541691161783555160018301555160028201550190518051906001600160401b038211610dbe576112c983546136e5565b601f81116113d4575b50602090601f83116001146113715761130192915f91836110ce5750508160011b915f199060031b1c19161790565b90555b604051906113136020836135c1565b5f82523315610d0d576001600160a01b0361132e8433613f57565b16610cfa5761134d5f51602061504a5f395f51905f5292843333614561565b6040519060078252602082015260606040820152806110b833956060830190613530565b90601f19831691845f52815f20925f5b8181106113bc57509084600195949392106113a4575b505050811b019055611304565b01515f1960f88460031b161c19169055868080611397565b92936020600181928786015181550195019301611381565b6113fe90845f5260205f20601f850160051c810191602086106105f857601f0160051c0190613ecb565b866112d2565b6282b42960e81b5f5260045ffd5b50335f52601660205260ff60405f205416156111ef565b3461096757602036600319011261096757611442613504565b335f525f60205260ff600460405f200154161561116c576001600160a01b03165f818152601f602052604090205460ff16156114c457335f52601e60205260405f20816001600160601b0360a01b8254161790556040519081527f6f4d2f40a1177187c17c94d6d1fc6958757a4fba84cdc3b2ef7f94945dd9a56660203392a2005b633dd1b30560e01b5f5260045ffd5b34610967576114e13661384e565b906114ea613bb8565b335f525f60205260ff600460405f200154161561116c57335f525f60205260ff600460405f200154161561116c57335f525f602052600260405f20015481158015611764575b61063e578161153e91614554565b335f525f602052600260405f200155335f525f602052600360405f2001611566828254614547565b90556115728133614f95565b6040518181527f8a7a71b8ba594f353cdb3f8f3e89ccff6fc5203a740304baa12edb9ede43918560203392a2601454905f198214610ce657600182016014556040516115bd8161358b565b600681526020810182815260408201914283526060810192868452855f52601560205260405f209151926008841015610dd25760039360ff801985541691161783555160018301555160028201550190518051906001600160401b038211610dbe5761162983546136e5565b601f8111611734575b50602090601f83116001146116d15761166192915f91836110ce5750508160011b915f199060031b1c19161790565b90555b604051906116736020836135c1565b5f82523315610d0d576001600160a01b0361168e8433613f57565b16610cfa576116ad5f51602061504a5f395f51905f5292843333614561565b6040519060068252602082015260606040820152806110b833956060830190613530565b90601f19831691845f52815f20925f5b81811061171c5750908460019594939210611704575b505050811b019055611664565b01515f1960f88460031b161c191690558680806116f7565b929360206001819287860151815501950193016116e1565b61175e90845f5260205f20601f850160051c810191602086106105f857601f0160051c0190613ecb565b86611632565b50818110611530565b3461096757604036600319011261096757611786613504565b506024358015150361096757638cd22d1960e01b5f5260045ffd5b34610967576020366003190112610967576060806040516117c18161358b565b5f81525f60208201525f604082015201526004355f52601560205260405f206040516117ec8161358b565b60ff8254166008811015610dd25761184692610963918352600181015490602084019182526118296003600283015492604087019384520161371d565b9160608501928352604051958695602087526020870190516137bd565b5160408501525160608401525160808084015260a0830190613530565b34610967576020366003190112610967576001600160a01b03611884613504565b165f52601c602052602060018060a01b0360405f205416604051908152f35b3461096757608036600319011261096757600435602435604435916064359260018060a01b036013541633141580611982575b611404576127106118f0826118eb8686614547565b614547565b11611973578361196e917f58ee77c9f5b50426dc036dff11919df1099b3ca39cf4823cecb182e34465a2f795606060405161192a8161358b565b86815287602082015283604082015201528360095584600a5580600b5581600c55604051948594859094939260609260808301968352602083015260408201520152565b0390a1005b63369276d760e11b5f5260045ffd5b50335f52601660205260ff60405f205416156118d6565b34610967575f366003190112610967576020600154604051908152f35b34610967575f366003190112610967576040515f600e546119d6816136e5565b8084529060018116908115611a705750600114611a12575b610963836119fe818503826135c1565b604051918291602083526020830190613530565b600e5f9081527fbb7b4a454dc3493923482f07822329ed19e8244eff582cc204f8554c3620c3fd939250905b808210611a56575090915081016020016119fe6119ee565b919260018160209254838588010152019101909291611a3e565b60ff191660208086019190915291151560051b840190910191506119fe90506119ee565b34610967575f36600319011261096757604051806020805491828152019060205f527fc97bfaf2f8ee708c303a06d134f5ecd8389ae0432af62dc132a24118292866bb905f5b818110611b055761096385611af1818703826135c1565b604051918291602083526020830190613812565b82546001600160a01b0316845260209093019260019283019201611ada565b346109675760203660031901126109675760043560205481101561096757602054811015611b8a5760205f8190527fc97bfaf2f8ee708c303a06d134f5ecd8389ae0432af62dc132a24118292866bb909101546040516001600160a01b03919091168152f35b634e487b7160e01b5f52603260045260245ffd5b34610967576060366003190112610967576004356001600160401b03811161096757611bd1611be99136906004016134a4565b611bda336144f7565b611be2613bb8565b36916135fd565b335f52600760205260405f209060ff60068301541615610e0457611c0c3361477a565b8015610df557611c2992611c1f82614863565b5095909184614554565b948360025410610de657611c76610b3692611c6c83611c7b96611c4b8961484a565b611c5784600354614547565b600355600101546001600160a01b03166148aa565b611c768887614554565b614554565b611c858333614993565b601454905f198214610ce65760018201601455604051611ca48161358b565b600481526020810182815260408201914283526060810192868452855f52601560205260405f209151926008841015610dd25760039360ff801985541691161783555160018301555160028201550190518051906001600160401b038211610dbe57611d1083546136e5565b601f8111611e43575b50602090601f8311600114611de057611d4892915f9183610d205750508160011b915f199060031b1c19161790565b90555b60405190611d5a6020836135c1565b5f82523315610d0d576001600160a01b03611d758433613f57565b16610cfa57611d945f51602061504a5f395f51905f5292843333614561565b604051906004825260208201526060604082015280611db833956060830190613530565b0390a3335f52601c602052610ca760443560243560018060a01b0360405f2054168433614cea565b90601f19831691845f52815f20925f5b818110611e2b5750908460019594939210611e13575b505050811b019055611d4b565b01515f1960f88460031b161c19169055878080611e06565b92936020600181928786015181550195019301611df0565b611e6d90845f5260205f20601f850160051c810191602086106105f857601f0160051c0190613ecb565b87611d19565b34610967576020366003190112610967576001600160a01b03611e94613504565b165f525f60205260808060405f20604051611eae816135a6565b60018060a01b038254168152600182015480602083015260028301549182604082015260ff600460038601549586606085015201541615159485910152604051938452602084015260408301526060820152f35b34610967575f366003190112610967576013546040516001600160a01b039091168152602090f35b3461096757604036600319011261096757611f43613504565b611f4b613f40565b6001600160a01b03165f8181526007602052604090206006015460ff1615610e04575f526007602052602435600460405f2001555f80f35b3461096757611fba611f94366134d1565b611f9f939293613bb8565b601754611be2908590309033906001600160a01b0316613bf0565b908015610df557335f525f60205260ff600460405f2001541615612204575b335f525f602052600160405f2001611ff2828254614547565b905561200081600454614547565b60045561200f81600254614547565b6002556040518181527fc00ca83e08bb02235508ecacfa2bcb1c4084793b3025932556ee58763fd643ce60203392a2601454905f198214610ce6576001820160145560405161205d8161358b565b600281526020810182815260408201914283526060810192868452855f52601560205260405f209151926008841015610dd25760039360ff801985541691161783555160018301555160028201550190518051906001600160401b038211610dbe576120c983546136e5565b601f81116121d4575b50602090601f83116001146121715761210192915f91836110ce5750508160011b915f199060031b1c19161790565b90555b604051906121136020836135c1565b5f82523315610d0d576001600160a01b0361212e8433613f57565b16610cfa5761214d5f51602061504a5f395f51905f5292843333614561565b6040519060028252602082015260606040820152806110b833956060830190613530565b90601f19831691845f52815f20925f5b8181106121bc57509084600195949392106121a4575b505050811b019055612104565b01515f1960f88460031b161c19169055868080612197565b92936020600181928786015181550195019301612181565b6121fe90845f5260205f20601f850160051c810191602086106105f857601f0160051c0190613ecb565b866120d2565b61228f604051612213816135a6565b3381526004602082015f8152604083015f815260608401905f8252608085019260018452335f525f60205260405f209560018060a01b039060018060a01b03905116166001600160601b0360a01b87541617865551600186015551600285015551600384015551151591019060ff801983541691151516179055565b600154600160401b811015610dbe576122b38160016122d1930160015560016137fd565b81546001600160a01b0360039290921b91821b19163390911b179055565b611fd9565b34610967576020366003190112610967576001600160a01b036122f7613504565b165f52601e602052602060018060a01b0360405f205416604051908152f35b346109675760203660031901126109675761232f613504565b612338336144f7565b6001600160a01b03165f818152601f602052604090205460ff16156114c457335f52601c60205260405f20816001600160601b0360a01b8254161790556040519081527f870967ac5ba43a8093d58379cdf887a75a792b3b9d5f8e3dda3347ffb7fabe9760203392a2005b34610967575f366003190112610967576017546040516001600160a01b039091168152602090f35b34610967576080366003190112610967576123e4613504565b6123ec61351a565b90604435916001600160401b03831161096757612410610e8c9336906004016137ca565b90612419613f40565b60643592614285565b34610967576020366003190112610967576001600160a01b03612443613504565b168015612460575f526010602052602060405f2054604051908152f35b6322718ad960e21b5f525f60045260245ffd5b346109675760203660031901126109675761248c613504565b6013546001600160a01b0316331415806124c8575b611404576001600160a01b03165f908152601660205260409020805460ff19166001179055005b50335f52601660205260ff60405f205416156124a1565b3461096757602036600319011261096757610e8c6124fb613504565b613a78565b3461096757602036600319011261096757602061251e600435613f0c565b6040516001600160a01b039091168152f35b3461096757602036600319011261096757612549613504565b5f60e060405161255881613554565b828152606060208201528260408201528260608201528260808201528260a08201528260c0820152015260018060a01b03165f52600560205260405f206040516125a181613554565b81546001600160a01b031681526125ba6001830161371d565b91602082019283526002810154906040830191825261267260038201546060850190815260048301549260808601938452600660058201549160a0880192835201549360c087019261260f60ff871685613a40565b60ff60e089019660081c161515865261264e604051998a9960208b5260018060a01b0390511660208b01525161010060408b01526101208a0190613530565b965160608901525160808801525160a08701525160c08601525160e085019061369e565b5115156101008301520390f35b34610967575f366003190112610967575f606060405161269e8161358b565b828152826020820152826040820152015260806126b9613a4c565b60606040519180518352602081015160208401526040810151604084015201516060820152f35b34610967576020366003190112610967576001600160a01b03612701613504565b165f52600760205260405f2060c06040519161271c83613570565b80546001600160a01b03908116845260018201541660208401908152906127456002820161371d565b938460408201526127aa60038301549384606084015260048401549283608082015260ff60066005870154968760a08501520154161515968791015260018060a01b03905116956040519687968752602087015260c0604087015260c0860190613530565b926060850152608084015260a08301520390f35b34610967576040366003190112610967576127d7613504565b602435906001600160401b038211610967576127fa610e8c9236906004016137ca565b90612803613f40565b61404e565b3461096757604036600319011261096757612821613504565b61282961351a565b6013546001600160a01b0316331415806128d0575b806128bd575b611404576001600160a01b03165f818152601f602052604090205490919060ff16156114c45760207f31fac9ae4760c8f643c60eddf35dc1bc3088e03f87bc932691d6390c6ac6105a9160018060a01b031692835f52601d825260405f20816001600160601b0360a01b825416179055604051908152a2005b50336001600160a01b0383161415612844565b50335f52601660205260ff60405f2054161561283e565b34610967576020366003190112610967576001600160a01b03612908613504565b165f52601f602052602060ff60405f2054166040519015158152f35b34610967576020366003190112610967576001600160a01b03612945613504565b165f52600560205260e060405f2060405161295f81613554565b81546001600160a01b0316815260ff600661297c6001850161371d565b9360208401948552600281015460408501526003810154606085015260048101546080850152600581015460a085015201546129bd82821660c08501613a40565b60081c161515928391015251906109636040519283928352604060208401526040830190613530565b3461096757610e8c6129f7366136ab565b9060405192612a076020856135c1565b5f8452610e8683838361387d565b34610967575f366003190112610967576020600254604051908152f35b3461096757602036600319011261096757612a4b613504565b5f60c0604051612a5a81613570565b828152826020820152606060408201528260608201528260808201528260a0820152015260018060a01b03165f52600760205260405f20604051612a9d81613570565b81546001600160a01b0390811682526001830154166020820190815291612ac66002820161371d565b6040830190815260038201549160608401928352600481015460808501908152612b4260ff600660058501549460a089019586520154169360c0870194151585526040519788976020895260018060a01b03905116602089015260018060a01b0390511660408801525160e06060880152610100870190613530565b935160808601525160a08501525160c084015251151560e08301520390f35b34610967575f366003190112610967576020600354604051908152f35b3461096757602036600319011261096757612b97613504565b6013546001600160a01b031633141580612bed575b611404576001600160a01b03165f8181526005602052604090206006015460081c60ff16156108da575f526005602052610e8c6001600660405f2001613ee1565b50335f52601660205260ff60405f20541615612bac565b34610967575f36600319011261096757601a546040516001600160a01b039091168152602090f35b34610967576020366003190112610967576001600160a01b03612c4d613504565b165f52601d602052602060018060a01b0360405f205416604051908152f35b34610967576020366003190112610967576004355f526015602052612cbb60405f2061096360ff82541691600181015490612cae60036002830154920161371d565b91604051958680966137bd565b60208501526040840152608060608401526080830190613530565b34610967576020366003190112610967576001600160a01b03612cf7613504565b165f526016602052602060ff60405f2054166040519015158152f35b3461096757610e8c612d24366136ab565b9161387d565b34610967576020366003190112610967576001600160a01b03612d4b613504565b165f526005602052602060ff600660405f20015416612d6d604051809261369e565bf35b3461096757602036600319011261096757612d88613504565b612d90613f40565b6013546001600160a01b0316903382141580612dd2575b611404576001600160a01b0316908114611404575f908152601660205260409020805460ff19169055005b50335f52601660205260ff60405f20541615612da7565b3461096757612df736613633565b505050506020604051630a85bd0160e11b8152f35b34610967575f36600319011261096757601b546040516001600160a01b039091168152602090f35b3461096757604036600319011261096757612e4d613504565b50638cd22d1960e01b5f5260045ffd5b3461096757602036600319011261096757600435612e7a81613f0c565b505f526011602052602060018060a01b0360405f205416604051908152f35b34610967575f366003190112610967576040515f600d54612eb9816136e5565b8084529060018116908115611a705750600114612ee057610963836119fe818503826135c1565b600d5f9081527fd7b6990105719101dabeb77144f2a3385c8033acd3af97e9423a695e81ad1eb5939250905b808210612f24575090915081016020016119fe6119ee565b919260018160209254838588010152019101909291612f0c565b3461096757604036600319011261096757612f57613504565b612f5f61351a565b6013546001600160a01b0316331415806133dd575b611404576001600160a01b0382161580156133cc575b6133bd576001600160a01b0382165f9081526005602052604090206006015460081c60ff16156108da576001600160a01b0381165f9081526005602052604090206006015460081c60ff166133ae5760018060a01b0382165f52600560205260405f2060405190612ffa82613554565b80546001600160a01b031682526130136001820161371d565b602083019081526002820154916040840192835260038101546060850190815260048201549060808601918252600660058401549360a0880194855201549461306260ff871660c08901613a40565b60089590951c60ff16151560e087019081526001600160a01b038881168089525f908152600560205260409020885181546001600160a01b031916921691909117815594518051919691906001600160401b038211610dbe576130c860018801546136e5565b601f811161337b575b50602090601f83116001146133075782600697959360c09997959361310a935f926132fc5750508160011b915f199060031b1c19161790565b60018601555b516002850155516003840155516004830155516005820155019201516002811015610dd25761313f9083613ee1565b51815461ff00191690151560081b61ff00161790556001600160a01b0382165f9081526005602052604081208181556001810180546006929190613182906136e5565b90816132b9575b505082600282015582600382015582600482015582600582015501556006545f5b818110613250575b5050600854905f5b8281106131c357005b600854811015611b8a577ff3f7a9fe364faab93b216da50a3214154f22a0a2b415b23a84c8169e8b636ee38101546001600160a01b039081165f818152600760205260409020600190810154909392878116911614613224575b50016131ba565b5f5260076020528160405f2001828060a01b0384166001600160601b0360a01b8254161790558561321d565b8261325a826137e5565b905460039190911b1c6001600160a01b039081169086161461327f57506001016131aa565b906132b2925061328e906137e5565b81546001600160a01b0393841660039290921b91821b9390911b1916919091179055565b82806131b2565b81601f8693116001146132d05750555b8580613189565b818352602083206132ec91601f0160051c810190600101613ecb565b80825281602081209155556132c9565b015190508e80610497565b90600188015f52805f20915f5b601f198516811061336357509260c098969492600192600699979583601f1981161061334b575b505050811b016001860155613110565b01515f1960f88460031b161c191690558d808061333b565b91926020600181928685015181550194019201613314565b6133a890600189015f5260205f20601f850160051c810191602086106105f857601f0160051c0190613ecb565b8b6130d1565b63a9cd934560e01b5f5260045ffd5b63d92e233d60e01b5f5260045ffd5b506001600160a01b03811615612f8a565b50335f52601660205260ff60405f20541615612f74565b346109675760203660031901126109675760043563ffffffff60e01b8116809103610967576020906380ac58cd60e01b8114908115613451575b8115613440575b506040519015158152f35b6301ffc9a760e01b14905082613435565b635b5e139f60e01b8114915061342e565b346109675761349161348a613476366134d1565b61348293929333613b33565b611f9f613bb8565b9033613c82565b60015f51602061502a5f395f51905f5255005b9181601f84011215610967578235916001600160401b038311610967576020838186019501011161096757565b9060406003198301126109675760043591602435906001600160401b03821161096757613500916004016134a4565b9091565b600435906001600160a01b038216820361096757565b602435906001600160a01b038216820361096757565b805180835260209291819084018484015e5f828201840152601f01601f1916010190565b61010081019081106001600160401b03821117610dbe57604052565b60e081019081106001600160401b03821117610dbe57604052565b608081019081106001600160401b03821117610dbe57604052565b60a081019081106001600160401b03821117610dbe57604052565b90601f801991011681019081106001600160401b03821117610dbe57604052565b6001600160401b038111610dbe57601f01601f191660200190565b929192613609826135e2565b9161361760405193846135c1565b829481845281830111610967578281602093845f960137010152565b906080600319830112610967576004356001600160a01b038116810361096757916024356001600160a01b0381168103610967579160443591606435906001600160401b03821161096757806023830112156109675781602461369b936004013591016135fd565b90565b906002821015610dd25752565b6060906003190112610967576004356001600160a01b038116810361096757906024356001600160a01b0381168103610967579060443590565b90600182811c92168015613713575b60208310146136ff57565b634e487b7160e01b5f52602260045260245ffd5b91607f16916136f4565b9060405191825f825492613730846136e5565b808452936001811690811561379b5750600114613757575b50613755925003836135c1565b565b90505f9291925260205f20905f915b81831061377f575050906020613755928201015f613748565b6020919350806001915483858901015201910190918492613766565b90506020925061375594915060ff191682840152151560051b8201015f613748565b906008821015610dd25752565b9080601f830112156109675781602061369b933591016135fd565b600654811015611b8a5760065f5260205f2001905f90565b8054821015611b8a575f5260205f2001905f90565b90602080835192838152019201905f5b81811061382f5750505090565b82516001600160a01b0316845260209384019390920191600101613822565b9060406003198301126109675760043591602435906001600160401b0382116109675761369b916004016137ca565b6001600160a01b0390911691908215610d0d575f828152600f60205260409020546001600160a01b0316151580613a38575b613a29575f828152600f60205260409020546001600160a01b031692829033151580613994575b5084613960575b805f52601060205260405f2060018154019055815f52600f60205260405f20816001600160601b0360a01b825416179055847fddf252ad1be2c89b69c2b068fc378daa952ba7f163c4a11628f55a4df523b3ef5f80a46001600160a01b031680830361394857505050565b6364283d7b60e01b5f5260045260245260445260645ffd5b815f52601160205260405f206001600160601b0360a01b8154169055845f52601060205260405f205f1981540190556138dd565b909150806139d8575b156139aa5782905f6138d6565b82846139c257637e27328960e01b5f5260045260245ffd5b63177e802f60e01b5f523360045260245260445ffd5b503384148015613a07575b8061399d57505f838152601160205260409020546001600160a01b0316331461399d565b505f84815260126020908152604080832033845290915290205460ff166139e3565b638cd22d1960e01b5f5260045ffd5b5060016138af565b6002821015610dd25752565b60405190613a598261358b565b6009548252600a546020830152600b546040830152600c546060830152565b6013546001600160a01b031633141580613b1c575b611404576001600160a01b0381169081156133bd57815f52601f60205260ff60405f205416613b1857815f52601f60205260405f20600160ff1982541617905560205490600160401b821015610dbe5761328e826001613af2940160205560206137fd565b7f9d1f436041f327969405be73ff1f74c3e13425f65af67adc9aa094875310b0cc5f80a2565b5050565b50335f52601660205260ff60405f20541615613a8d565b6001600160a01b03165f8181526005602052604090206006015460081c60ff16156108da57805f52600560205260ff600660405f200154166002811015610dd257600103613ba9575f908152600560205260409020546001600160a01b03163303613b9a57565b63149f740160e01b5f5260045ffd5b63146dfecd60e21b5f5260045ffd5b60025f51602061502a5f395f51905f525414613be15760025f51602061502a5f395f51905f5255565b633ee5aeb560e01b5f5260045ffd5b6040516323b872dd60e01b5f9081526001600160a01b039384166004529290931660245260449390935260209060648180865af19060015f5114821615613c61575b6040525f60605215613c415750565b635274afe760e01b5f9081526001600160a01b0391909116600452602490fd5b906001811516613c7957823b15153d15161690613c32565b503d5f823e3d90fd5b6001600160a01b03165f8181526005602052604090206006015460081c60ff16156108da578115610df557805f526005602052600360405f2001613cc7838254614547565b9055613cd582600254614547565b6002557f71e787e88091d7b36828528c50fd32b46efef0764519d86f34eb2543bd95492d6020604051848152a2601454905f198214610ce65760018201601455604051613d218161358b565b5f81526020810182815260408201914283526060810192868452855f52601560205260405f209151926008841015610dd25760039360ff801985541691161783555160018301555160028201550190518051906001600160401b038211610dbe57613d8c83546136e5565b601f8111613e9b575b50602090601f8311600114613e3857613dc492915f918361055a5750508160011b915f199060031b1c19161790565b90555b60405190613dd66020836135c1565b5f82523315610d0d576001600160a01b03613df18433613f57565b16610cfa57613e105f51602061504a5f395f51905f5292843333614561565b604051905f825260208201526060604082015280613e3333956060830190613530565b0390a3565b90601f19831691845f52815f20925f5b818110613e835750908460019594939210613e6b575b505050811b019055613dc7565b01515f1960f88460031b161c191690555f8080613e5e565b92936020600181928786015181550195019301613e48565b613ec590845f5260205f20601f850160051c810191602086106105f857601f0160051c0190613ecb565b5f613d95565b818110613ed6575050565b5f8155600101613ecb565b906002811015610dd25760ff80198354169116179055565b81810292918115918404141715610ce657565b5f818152600f60205260409020546001600160a01b0316908115613f2e575090565b637e27328960e01b5f5260045260245ffd5b335f52601660205260ff60405f2054161561140457565b5f828152600f60205260409020549091906001600160a01b031615158061403c575b613a29575f818152600f60205260409020546001600160a01b03169182614008575b6001600160a01b031680613ff0575b815f52600f60205260405f20816001600160601b0360a01b825416179055827fddf252ad1be2c89b69c2b068fc378daa952ba7f163c4a11628f55a4df523b3ef5f80a490565b805f52601060205260405f2060018154019055613faa565b815f52601160205260405f206001600160601b0360a01b8154169055825f52601060205260405f205f198154019055613f9b565b506001600160a01b0382161515613f79565b6001600160a01b0381165f818152600560205260409020600601549092919060081c60ff166142805760405161408381613554565b8381526020810183815260408201915f8352606081015f8152608082015f815260a08301915f835260c08401956001875260e0850195600187528a5f52600560205260405f209560018060a01b039060018060a01b03905116166001600160601b0360a01b8754161786556001860190518051906001600160401b038211610dbe5761410f83546136e5565b601f8111614250575b50602090601f83116001146141e55791806141509260069a9998979695945f9261055a5750508160011b915f199060031b1c19161790565b90555b5160028501555160038401555160048301555160058201550191516002811015610dd2576141819083613ee1565b51815461ff00191690151560081b61ff001617905560065491600160401b831015610dbe576119fe6141e09261328e8560017f76686aa361308f4a08557cca1a847299ce61e5602a3495cd359a599a1dca438c970160065560066137fd565b0390a2565b90601f19831691845f52815f20925f5b818110614238575091600193918560069c9b9a999897969410614220575b505050811b019055614153565b01515f1960f88460031b161c191690555f8080614213565b929360206001819287860151815501950193016141f5565b61427a90845f5260205f20601f850160051c810191602086106105f857601f0160051c0190613ecb565b5f614118565b505050565b6001600160a01b0381165f818152600760205260409020600601549093929060ff166144f0576001600160a01b03165f8181526005602052604090206006015490949060081c60ff16156108da57845f52600560205260ff600660405f200154166002811015610dd257600103613ba9576040519061430382613570565b84825260208083018781526040808501878152606086019485525f6080870181815260a08801828152600160c08a018181528d8552600790985294909220975188546001600160a01b03199081166001600160a01b03928316178a55955194890180549096169416939093179093555180519394929391929160028701916001600160401b038211610dbe5761439983546136e5565b601f81116144c0575b50602090601f8311600114614452578260069795936144089a999795936143dd935f9261055a5750508160011b915f199060031b1c19161790565b90555b51600386015551600485015551600584015551151591019060ff801983541691151516179055565b60085491600160401b831015610dbe576119fe613e339261328e8560017fc7b8ebf52ebf4d1384b6ec0c9b34e4f01dfe3bd1aacc6211495d69f7c66e5af3970160085560086137fd565b90601f19831691845f52815f20925f5b8181106144a8575092600192859260069a98966144089d9c9a989610614490575b505050811b0190556143e0565b01515f1960f88460031b161c191690555f8080614483565b92936020600181928786015181550195019301614462565b6144ea90845f5260205f20601f850160051c810191602086106105f857601f0160051c0190613ecb565b5f6143a2565b5050505050565b6001600160a01b03165f8181526007602052604090206006015460ff1615610e04575f908152600760205260409020546001600160a01b0316330361453857565b630ae9c7ed60e01b5f5260045ffd5b91908201809211610ce657565b91908203918211610ce657565b9291813b614570575b50505050565b604051630a85bd0160e11b81526001600160a01b0394851660048201525f602482015260448101919091526080606482015292169190602090829081906145bb906084830190613530565b03815f865af15f9181614651575b5061461e57503d15614617573d6145df816135e2565b906145ed60405192836135c1565b81523d5f602083013e5b805190816146125782633250574960e11b5f5260045260245ffd5b602001fd5b60606145f7565b6001600160e01b03191663757a42ff60e11b0161463f57505f80808061456a565b633250574960e11b5f5260045260245ffd5b9091506020813d60201161468e575b8161466d602093836135c1565b8101031261096757516001600160e01b03198116810361096757905f6145c9565b3d9150614660565b823b6146a3575050505050565b604051630a85bd0160e11b81526001600160a01b0391821660048201529181166024830152604482019390935260806064820152911691602090829081906146ef906084830190613530565b03815f865af15f9181614735575b5061471357503d15614617573d6145df816135e2565b6001600160e01b03191663757a42ff60e11b0161463f57505f808080806144f0565b9091506020813d602011614772575b81614751602093836135c1565b8101031261096757516001600160e01b03198116810361096757905f6146fd565b3d9150614744565b60018060a01b03165f52600760205260405f2060405161479981613570565b81546001600160a01b03908116825260018301541660208201526147bf6002830161371d565b60408201526148066003830154601e60608401938285526004860154906080810191825260c060ff600660058a01549960a085019a8b520154161515910152519104613ef9565b9051601e810290808204601e1490151715610ce65760649004808210156148425750905b518082111561483c5761369b91614554565b50505f90565b90509061482a565b60025490808210610de65761485e91614554565b600255565b61487361271091600c5490613ef9565b049061271061488460095484613ef9565b0490612710614895600a5485613ef9565b04906127106148a6600b5486613ef9565b0490565b60018060a01b03165f5260056020526148cb600460405f2001918254614547565b9055565b80158015614989575b614986576001545f5b8181106148ed57505050565b600154811015611b8a577fb10e2d527612073b26eecdfd717e6a320cf44b4afac2b0732d9fcbe2b7fa0cf68101546001600160a01b03165f81815260208190526040902060010154909190614943908590613ef9565b9160045480156149725760019304905f525f60205261496a600260405f2001918254614547565b9055016148e1565b634e487b7160e01b5f52601260045260245ffd5b50565b50600454156148d8565b60018060a01b03165f5260076020526148cb600560405f2001918254614547565b6001600160401b038111610dbe5760051b60200190565b805115611b8a5760200190565b805160011015611b8a5760400190565b90816020910312610967575180151581036109675790565b9091821561456a576001600160a01b0381168015908115614cd2575b50614cc0575b6017546001600160a01b039182169116818114614c535750905f91602060405191614a4e6060846135c1565b60028352604036838501376017546001600160a01b03169081614a70856149cb565b52614a7a846149d8565b5260185460405163095ea7b360e01b81526001600160a01b0390911660048201526024810186905294859160449183915af1928315614bfe57614afc93614c36575b5060175460185460405163095ea7b360e01b81526001600160a01b03918216600482015260248101879052946020928692169082905f9082906044820190565b03925af18015614bfe575f94614b50948692614c09575b5060018060a01b036018541693604051978896879586946338ed173960e01b8652600486015285602486015260a0604486015260a4850190613812565b6001600160a01b039092166064840152608483015203925af18015614bfe57614b765750565b3d805f833e614b8581836135c1565b810190602081830312610967578051906001600160401b038211610967570181601f8201121561096757805190602080614bbe846149b4565b614bcb60405191826135c1565b848152019260051b82010192831161096757602001905b828210614bee57505050565b8151815260209182019101614be2565b6040513d5f823e3d90fd5b614c2a9060203d602011614c2f575b614c2281836135c1565b8101906149e8565b614b13565b503d614c18565b614c4e9060203d602011614c2f57614c2281836135c1565b614abc565b935050906040519163a9059cbb60e01b5f5260018060a01b031660045260245260205f60448180865af19060015f5114821615614ca8575b60405215614c965750565b635274afe760e01b5f5260045260245ffd5b906001811516613c7957823b15153d15161690614c8b565b506017546001600160a01b0316614a22565b90505f52601f60205260ff60405f205416155f614a1c565b929390919382156144f0576001600160a01b0385168015908115614f7d575b50614f6a575b6017546001600160a01b03908116951692838614614f28575f8095965050602060405194614d3e6060876135c1565b60028652604036838801376017546001600160a01b03169081614d60886149cb565b52614d6a876149d8565b5260185460405163095ea7b360e01b81526001600160a01b0390911660048201526024810188905296879160449183915af1948515614bfe57614dec95614f0b575b5060175460185460405163095ea7b360e01b81526001600160a01b03918216600482015260248101849052966020928892169082905f9082906044820190565b03925af1908115614bfe57614e40965f968793614eee575b5060018060a01b036018541694604051988997889687956338ed173960e01b87526004870152602486015260a0604486015260a4850190613812565b6001600160a01b039092166064840152608483015203925af18015614bfe57614e665750565b3d805f833e614e7581836135c1565b810190602081830312610967578051906001600160401b038211610967570181601f8201121561096757805190602080614eae846149b4565b614ebb60405191826135c1565b848152019260051b82010192831161096757602001905b828210614ede57505050565b8151815260209182019101614ed2565b614f069060203d602011614c2f57614c2281836135c1565b614e04565b614f239060203d602011614c2f57614c2281836135c1565b614dac565b925050506040519163a9059cbb60e01b5f5260018060a01b031660045260245260205f60448180865af19060015f5114821615614ca85760405215614c965750565b6017546001600160a01b03169450614d0f565b90505f52601f60205260ff60405f205416155f614d09565b6001600160a01b0381165f8181526005602052604081206006015492939260081c60ff1615614fed57505f908152601d60205260409020546001600160a01b03165b61012c420191824211610ce65761375593614a00565b90805f525f60205260ff600460405f2001541661500b575b50614fd7565b5f908152601e60205260408120546001600160a01b0316915061500556fe9b779b17422d0df92223018b32b4d1fa46e071723d6817e2486d003becc55f00203af4e266d9353f4869604ec4c3ee79d16b9b3377af712cbf5b541d7a38168ea2646970667358221220ff862e8a84aac94142d545dcd7dbce530ab2a2d4b2ef987d8741ad4442a25fcd64736f6c634300081e0033","linkReferences":{}},"methodIdentifiers":{"addAdmin(address)":"70480275","addEmployee(address,address,string,uint256)":"737893d7","addSupportedPayoutToken(address)":"64451279","agniRouter()":"f431f103","anchorStable()":"11596a80","approve(address,uint256)":"095ea7b3","balanceOf(address)":"70a08231","calculateEmployeeEligibleWithdrawal(address)":"c22e20b6","contractOwner()":"ce606ee0","depositInvestorLiquidityToken(uint256,string)":"873e0387","dexFactory()":"b8d8fbb4","disableCompany(address)":"c95356fe","enableCompany(address)":"2f89d4a8","getApproved(uint256)":"081812fc","getCompany(address)":"62bc56e6","getCompanyCount()":"f0782640","getCompanyInfo(address)":"42e12c83","getCompanyLiquidity(address)":"e4fd7569","getCompanyStatus(address)":"2296f80e","getEmployee(address)":"32648e09","getEmployeeCount()":"c2a63e3b","getEmployeeInfo(address)":"5ac09b2b","getFeeConfig()":"5fbbc0d2","getFeeConfiguration()":"ad5cb2e1","getInvestor(address)":"8f35a75e","getInvestorCount()":"960524e3","getPlatformFeeBalance()":"316506e9","getReceiptData(uint256)":"a039cddf","getSupportedPayoutTokens()":"9488d22e","getTotalInvestorLiquidity()":"f22fbf0d","getTotalLiquidity()":"35c7e925","initialize(address)":"c4d66de8","isAdmin(address)":"24d7806c","isApprovedForAll(address,address)":"e985e9c5","lockCompanyLiquidity(uint256,string)":"f9ea8232","lockCompanyLiquidityToken(uint256,string)":"0022ccf8","name()":"06fdde03","onERC721Received(address,address,uint256,bytes)":"150b7a02","owner()":"8da5cb5b","ownerOf(uint256)":"6352211e","preferredPayoutToken(address)":"9f8316d6","preferredPayoutTokenCompany(address)":"28152e73","preferredPayoutTokenInvestor(address)":"8453ea99","receiptData(uint256)":"27d35db7","registerCompany(address,string)":"4cd995da","removeAdmin(address)":"1785f53c","safeTransferFrom(address,address,uint256)":"42842e0e","safeTransferFrom(address,address,uint256,bytes)":"b88d4fde","setApprovalForAll(address,bool)":"a22cb465","setCompanyPayoutToken(address,address)":"4c56ed29","setInvestorPayoutToken(address)":"a6113c96","setPreferredPayoutToken(address)":"7d0ecac9","settlementToken()":"7b9e618d","supportedPayoutToken(address)":"496d25e1","supportedPayoutTokens(uint256)":"91724352","supportsInterface(bytes4)":"01ffc9a7","symbol()":"95d89b41","tokenURI(uint256)":"c87b56dd","transferFrom(address,address,uint256)":"23b872dd","updateCompanyAddress(address,address)":"06080adf","updateEmployeeDaysWorked(address,uint256)":"8c761f70","updateFeeConfig(uint256,uint256,uint256,uint256)":"9c8497ea","wNative()":"2d68efc9","withdrawAllInvestorLiquidity(string)":"b32ede50","withdrawCompanyReward(uint256,string)":"fe7d78a9","withdrawInvestorReward(uint256,string)":"a3f3a41b","withdrawPlatformFee(uint256,string)":"ad452385","withdrawSalary(string)":"c252b964","withdrawSalaryWithSwap(string,uint256,uint256)":"9085fd39"},"id":45}