{"abi":[{"type":"constructor","inputs":[{"name":"_initialOwner","type":"address","internalType":"address"}],"stateMutability":"nonpayable"},{"type":"fallback","stateMutability":"payable"},{"type":"receive","stateMutability":"payable"},{"type":"function","name":"addAdmin","inputs":[{"name":"_admin","type":"address","internalType":"address"}],"outputs":[],"stateMutability":"nonpayable"},{"type":"function","name":"addEmployee","inputs":[{"name":"_employeeId","type":"address","internalType":"address"},{"name":"_companyId","type":"address","internalType":"address"},{"name":"_name","type":"string","internalType":"string"},{"name":"_monthlySalary","type":"uint256","internalType":"uint256"}],"outputs":[],"stateMutability":"nonpayable"},{"type":"function","name":"approve","inputs":[{"name":"","type":"address","internalType":"address"},{"name":"","type":"uint256","internalType":"uint256"}],"outputs":[],"stateMutability":"nonpayable"},{"type":"function","name":"balanceOf","inputs":[{"name":"owner","type":"address","internalType":"address"}],"outputs":[{"name":"","type":"uint256","internalType":"uint256"}],"stateMutability":"view"},{"type":"function","name":"calculateEmployeeEligibleWithdrawal","inputs":[{"name":"_employeeId","type":"address","internalType":"address"}],"outputs":[{"name":"","type":"uint256","internalType":"uint256"}],"stateMutability":"view"},{"type":"function","name":"contractOwner","inputs":[],"outputs":[{"name":"","type":"address","internalType":"address"}],"stateMutability":"view"},{"type":"function","name":"depositInvestorLiquidity","inputs":[{"name":"_cid","type":"string","internalType":"string"}],"outputs":[],"stateMutability":"payable"},{"type":"function","name":"getApproved","inputs":[{"name":"tokenId","type":"uint256","internalType":"uint256"}],"outputs":[{"name":"","type":"address","internalType":"address"}],"stateMutability":"view"},{"type":"function","name":"getCompany","inputs":[{"name":"_companyId","type":"address","internalType":"address"}],"outputs":[{"name":"","type":"tuple","internalType":"struct CompanyStorage.Company","components":[{"name":"owner","type":"address","internalType":"address"},{"name":"name","type":"string","internalType":"string"},{"name":"totalSalary","type":"uint256","internalType":"uint256"},{"name":"lockedLiquidity","type":"uint256","internalType":"uint256"},{"name":"rewardBalance","type":"uint256","internalType":"uint256"},{"name":"exists","type":"bool","internalType":"bool"}]}],"stateMutability":"view"},{"type":"function","name":"getCompanyCount","inputs":[],"outputs":[{"name":"","type":"uint256","internalType":"uint256"}],"stateMutability":"view"},{"type":"function","name":"getCompanyInfo","inputs":[{"name":"_companyId","type":"address","internalType":"address"}],"outputs":[{"name":"exists","type":"bool","internalType":"bool"},{"name":"name","type":"string","internalType":"string"}],"stateMutability":"view"},{"type":"function","name":"getCompanyLiquidity","inputs":[{"name":"_companyId","type":"address","internalType":"address"}],"outputs":[{"name":"locked","type":"uint256","internalType":"uint256"},{"name":"totalRewards","type":"uint256","internalType":"uint256"},{"name":"withdrawnRewards","type":"uint256","internalType":"uint256"}],"stateMutability":"view"},{"type":"function","name":"getEmployee","inputs":[{"name":"_employeeId","type":"address","internalType":"address"}],"outputs":[{"name":"","type":"tuple","internalType":"struct EmployeeStorage.Employee","components":[{"name":"employeeAddress","type":"address","internalType":"address"},{"name":"companyId","type":"address","internalType":"address"},{"name":"name","type":"string","internalType":"string"},{"name":"monthlySalary","type":"uint256","internalType":"uint256"},{"name":"daysWorked","type":"uint256","internalType":"uint256"},{"name":"withdrawnAmount","type":"uint256","internalType":"uint256"},{"name":"exists","type":"bool","internalType":"bool"}]}],"stateMutability":"view"},{"type":"function","name":"getEmployeeCount","inputs":[],"outputs":[{"name":"","type":"uint256","internalType":"uint256"}],"stateMutability":"view"},{"type":"function","name":"getEmployeeInfo","inputs":[{"name":"_employeeId","type":"address","internalType":"address"}],"outputs":[{"name":"exists","type":"bool","internalType":"bool"},{"name":"companyId","type":"address","internalType":"address"},{"name":"name","type":"string","internalType":"string"},{"name":"monthlySalary","type":"uint256","internalType":"uint256"},{"name":"daysWorked","type":"uint256","internalType":"uint256"},{"name":"withdrawnAmount","type":"uint256","internalType":"uint256"}],"stateMutability":"view"},{"type":"function","name":"getFeeConfig","inputs":[],"outputs":[{"name":"","type":"tuple","internalType":"struct FeeStorage.FeeConfig","components":[{"name":"platformShare","type":"uint256","internalType":"uint256"},{"name":"companyShare","type":"uint256","internalType":"uint256"},{"name":"investorShare","type":"uint256","internalType":"uint256"},{"name":"feeBps","type":"uint256","internalType":"uint256"}]}],"stateMutability":"view"},{"type":"function","name":"getFeeConfiguration","inputs":[],"outputs":[{"name":"platformShare","type":"uint256","internalType":"uint256"},{"name":"companyShare","type":"uint256","internalType":"uint256"},{"name":"investorShare","type":"uint256","internalType":"uint256"},{"name":"feeBps","type":"uint256","internalType":"uint256"}],"stateMutability":"view"},{"type":"function","name":"getInvestor","inputs":[{"name":"_investorId","type":"address","internalType":"address"}],"outputs":[{"name":"exists","type":"bool","internalType":"bool"},{"name":"deposited","type":"uint256","internalType":"uint256"},{"name":"totalRewards","type":"uint256","internalType":"uint256"},{"name":"withdrawnRewards","type":"uint256","internalType":"uint256"}],"stateMutability":"view"},{"type":"function","name":"getInvestorCount","inputs":[],"outputs":[{"name":"","type":"uint256","internalType":"uint256"}],"stateMutability":"view"},{"type":"function","name":"getPlatformFeeBalance","inputs":[],"outputs":[{"name":"","type":"uint256","internalType":"uint256"}],"stateMutability":"view"},{"type":"function","name":"getReceiptData","inputs":[{"name":"_tokenId","type":"uint256","internalType":"uint256"}],"outputs":[{"name":"","type":"tuple","internalType":"struct ReceiptNFTModule.ReceiptData","components":[{"name":"txType","type":"uint8","internalType":"enum Enums.TxType"},{"name":"amount","type":"uint256","internalType":"uint256"},{"name":"timestamp","type":"uint256","internalType":"uint256"},{"name":"cid","type":"string","internalType":"string"}]}],"stateMutability":"view"},{"type":"function","name":"getTotalInvestorLiquidity","inputs":[],"outputs":[{"name":"","type":"uint256","internalType":"uint256"}],"stateMutability":"view"},{"type":"function","name":"getTotalLiquidity","inputs":[],"outputs":[{"name":"","type":"uint256","internalType":"uint256"}],"stateMutability":"view"},{"type":"function","name":"initialize","inputs":[{"name":"_initialOwner","type":"address","internalType":"address"}],"outputs":[],"stateMutability":"nonpayable"},{"type":"function","name":"isAdmin","inputs":[{"name":"_admin","type":"address","internalType":"address"}],"outputs":[{"name":"","type":"bool","internalType":"bool"}],"stateMutability":"view"},{"type":"function","name":"isApprovedForAll","inputs":[{"name":"owner","type":"address","internalType":"address"},{"name":"operator","type":"address","internalType":"address"}],"outputs":[{"name":"","type":"bool","internalType":"bool"}],"stateMutability":"view"},{"type":"function","name":"lockCompanyLiquidity","inputs":[{"name":"_amount","type":"uint256","internalType":"uint256"},{"name":"_cid","type":"string","internalType":"string"}],"outputs":[],"stateMutability":"payable"},{"type":"function","name":"name","inputs":[],"outputs":[{"name":"","type":"string","internalType":"string"}],"stateMutability":"view"},{"type":"function","name":"onERC721Received","inputs":[{"name":"","type":"address","internalType":"address"},{"name":"","type":"address","internalType":"address"},{"name":"","type":"uint256","internalType":"uint256"},{"name":"","type":"bytes","internalType":"bytes"}],"outputs":[{"name":"","type":"bytes4","internalType":"bytes4"}],"stateMutability":"nonpayable"},{"type":"function","name":"owner","inputs":[],"outputs":[{"name":"","type":"address","internalType":"address"}],"stateMutability":"view"},{"type":"function","name":"ownerOf","inputs":[{"name":"tokenId","type":"uint256","internalType":"uint256"}],"outputs":[{"name":"","type":"address","internalType":"address"}],"stateMutability":"view"},{"type":"function","name":"receiptData","inputs":[{"name":"","type":"uint256","internalType":"uint256"}],"outputs":[{"name":"txType","type":"uint8","internalType":"enum Enums.TxType"},{"name":"amount","type":"uint256","internalType":"uint256"},{"name":"timestamp","type":"uint256","internalType":"uint256"},{"name":"cid","type":"string","internalType":"string"}],"stateMutability":"view"},{"type":"function","name":"registerCompany","inputs":[{"name":"_companyId","type":"address","internalType":"address"},{"name":"_name","type":"string","internalType":"string"}],"outputs":[],"stateMutability":"nonpayable"},{"type":"function","name":"removeAdmin","inputs":[{"name":"_admin","type":"address","internalType":"address"}],"outputs":[],"stateMutability":"nonpayable"},{"type":"function","name":"safeTransferFrom","inputs":[{"name":"from","type":"address","internalType":"address"},{"name":"to","type":"address","internalType":"address"},{"name":"tokenId","type":"uint256","internalType":"uint256"}],"outputs":[],"stateMutability":"nonpayable"},{"type":"function","name":"safeTransferFrom","inputs":[{"name":"from","type":"address","internalType":"address"},{"name":"to","type":"address","internalType":"address"},{"name":"tokenId","type":"uint256","internalType":"uint256"},{"name":"data","type":"bytes","internalType":"bytes"}],"outputs":[],"stateMutability":"nonpayable"},{"type":"function","name":"setApprovalForAll","inputs":[{"name":"","type":"address","internalType":"address"},{"name":"","type":"bool","internalType":"bool"}],"outputs":[],"stateMutability":"nonpayable"},{"type":"function","name":"supportsInterface","inputs":[{"name":"interfaceId","type":"bytes4","internalType":"bytes4"}],"outputs":[{"name":"","type":"bool","internalType":"bool"}],"stateMutability":"view"},{"type":"function","name":"symbol","inputs":[],"outputs":[{"name":"","type":"string","internalType":"string"}],"stateMutability":"view"},{"type":"function","name":"tokenURI","inputs":[{"name":"tokenId","type":"uint256","internalType":"uint256"}],"outputs":[{"name":"","type":"string","internalType":"string"}],"stateMutability":"view"},{"type":"function","name":"transferFrom","inputs":[{"name":"from","type":"address","internalType":"address"},{"name":"to","type":"address","internalType":"address"},{"name":"tokenId","type":"uint256","internalType":"uint256"}],"outputs":[],"stateMutability":"nonpayable"},{"type":"function","name":"updateEmployeeDaysWorked","inputs":[{"name":"_employeeId","type":"address","internalType":"address"},{"name":"_days","type":"uint256","internalType":"uint256"}],"outputs":[],"stateMutability":"nonpayable"},{"type":"function","name":"updateFeeConfig","inputs":[{"name":"_platformShare","type":"uint256","internalType":"uint256"},{"name":"_companyShare","type":"uint256","internalType":"uint256"},{"name":"_investorShare","type":"uint256","internalType":"uint256"},{"name":"_feeBps","type":"uint256","internalType":"uint256"}],"outputs":[],"stateMutability":"nonpayable"},{"type":"function","name":"withdrawAllInvestorLiquidity","inputs":[{"name":"_cid","type":"string","internalType":"string"}],"outputs":[],"stateMutability":"nonpayable"},{"type":"function","name":"withdrawCompanyReward","inputs":[{"name":"_amount","type":"uint256","internalType":"uint256"},{"name":"_cid","type":"string","internalType":"string"}],"outputs":[],"stateMutability":"nonpayable"},{"type":"function","name":"withdrawInvestorReward","inputs":[{"name":"_amount","type":"uint256","internalType":"uint256"},{"name":"_cid","type":"string","internalType":"string"}],"outputs":[],"stateMutability":"nonpayable"},{"type":"function","name":"withdrawPlatformFee","inputs":[{"name":"_amount","type":"uint256","internalType":"uint256"},{"name":"_cid","type":"string","internalType":"string"}],"outputs":[],"stateMutability":"nonpayable"},{"type":"function","name":"withdrawSalary","inputs":[{"name":"_cid","type":"string","internalType":"string"}],"outputs":[],"stateMutability":"nonpayable"},{"type":"event","name":"Approval","inputs":[{"name":"owner","type":"address","indexed":true,"internalType":"address"},{"name":"approved","type":"address","indexed":true,"internalType":"address"},{"name":"tokenId","type":"uint256","indexed":true,"internalType":"uint256"}],"anonymous":false},{"type":"event","name":"ApprovalForAll","inputs":[{"name":"owner","type":"address","indexed":true,"internalType":"address"},{"name":"operator","type":"address","indexed":true,"internalType":"address"},{"name":"approved","type":"bool","indexed":false,"internalType":"bool"}],"anonymous":false},{"type":"event","name":"CompanyLiquidityLocked","inputs":[{"name":"company","type":"address","indexed":true,"internalType":"address"},{"name":"amount","type":"uint256","indexed":false,"internalType":"uint256"}],"anonymous":false},{"type":"event","name":"CompanyRegistered","inputs":[{"name":"company","type":"address","indexed":true,"internalType":"address"},{"name":"name","type":"string","indexed":false,"internalType":"string"}],"anonymous":false},{"type":"event","name":"CompanyRewardWithdrawn","inputs":[{"name":"company","type":"address","indexed":true,"internalType":"address"},{"name":"amount","type":"uint256","indexed":false,"internalType":"uint256"}],"anonymous":false},{"type":"event","name":"EmployeeAdded","inputs":[{"name":"employee","type":"address","indexed":true,"internalType":"address"},{"name":"company","type":"address","indexed":true,"internalType":"address"},{"name":"name","type":"string","indexed":false,"internalType":"string"}],"anonymous":false},{"type":"event","name":"EmployeeSalaryWithdrawn","inputs":[{"name":"employee","type":"address","indexed":true,"internalType":"address"},{"name":"amount","type":"uint256","indexed":false,"internalType":"uint256"}],"anonymous":false},{"type":"event","name":"FeeConfigUpdated","inputs":[{"name":"platformShare","type":"uint256","indexed":false,"internalType":"uint256"},{"name":"companyShare","type":"uint256","indexed":false,"internalType":"uint256"},{"name":"investorShare","type":"uint256","indexed":false,"internalType":"uint256"},{"name":"feeBps","type":"uint256","indexed":false,"internalType":"uint256"}],"anonymous":false},{"type":"event","name":"InvestorDeposited","inputs":[{"name":"investor","type":"address","indexed":true,"internalType":"address"},{"name":"amount","type":"uint256","indexed":false,"internalType":"uint256"}],"anonymous":false},{"type":"event","name":"InvestorRewardWithdrawn","inputs":[{"name":"investor","type":"address","indexed":true,"internalType":"address"},{"name":"amount","type":"uint256","indexed":false,"internalType":"uint256"}],"anonymous":false},{"type":"event","name":"InvestorWithdrawn","inputs":[{"name":"investor","type":"address","indexed":true,"internalType":"address"},{"name":"amount","type":"uint256","indexed":false,"internalType":"uint256"}],"anonymous":false},{"type":"event","name":"PlatformFeeWithdrawn","inputs":[{"name":"platform","type":"address","indexed":true,"internalType":"address"},{"name":"amount","type":"uint256","indexed":false,"internalType":"uint256"}],"anonymous":false},{"type":"event","name":"ReceiptMinted","inputs":[{"name":"tokenId","type":"uint256","indexed":true,"internalType":"uint256"},{"name":"to","type":"address","indexed":true,"internalType":"address"},{"name":"txType","type":"uint8","indexed":false,"internalType":"enum Enums.TxType"},{"name":"amount","type":"uint256","indexed":false,"internalType":"uint256"},{"name":"cid","type":"string","indexed":false,"internalType":"string"}],"anonymous":false},{"type":"event","name":"Transfer","inputs":[{"name":"from","type":"address","indexed":true,"internalType":"address"},{"name":"to","type":"address","indexed":true,"internalType":"address"},{"name":"tokenId","type":"uint256","indexed":true,"internalType":"uint256"}],"anonymous":false},{"type":"error","name":"CompanyNotFound","inputs":[]},{"type":"error","name":"ERC721IncorrectOwner","inputs":[{"name":"sender","type":"address","internalType":"address"},{"name":"tokenId","type":"uint256","internalType":"uint256"},{"name":"owner","type":"address","internalType":"address"}]},{"type":"error","name":"ERC721InsufficientApproval","inputs":[{"name":"operator","type":"address","internalType":"address"},{"name":"tokenId","type":"uint256","internalType":"uint256"}]},{"type":"error","name":"ERC721InvalidApprover","inputs":[{"name":"approver","type":"address","internalType":"address"}]},{"type":"error","name":"ERC721InvalidOperator","inputs":[{"name":"operator","type":"address","internalType":"address"}]},{"type":"error","name":"ERC721InvalidOwner","inputs":[{"name":"owner","type":"address","internalType":"address"}]},{"type":"error","name":"ERC721InvalidReceiver","inputs":[{"name":"receiver","type":"address","internalType":"address"}]},{"type":"error","name":"ERC721InvalidSender","inputs":[{"name":"sender","type":"address","internalType":"address"}]},{"type":"error","name":"ERC721NonexistentToken","inputs":[{"name":"tokenId","type":"uint256","internalType":"uint256"}]},{"type":"error","name":"EmployeeNotFound","inputs":[]},{"type":"error","name":"InsufficientBalance","inputs":[]},{"type":"error","name":"InsufficientLiquidity","inputs":[]},{"type":"error","name":"InvalidAmount","inputs":[]},{"type":"error","name":"InvalidFeeConfiguration","inputs":[]},{"type":"error","name":"InvestorNotFound","inputs":[]},{"type":"error","name":"NotCompany","inputs":[]},{"type":"error","name":"NotEmployee","inputs":[]},{"type":"error","name":"TransferNotAllowed","inputs":[]},{"type":"error","name":"Unauthorized","inputs":[]}],"bytecode":{"object":"0x6080604052346103a557613ad06020813803918261001c816103a9565b9384928339810103126103a557516001600160a01b038116908190036103a55761004660406103a9565b90601082526f11d85a9a52da5d1848149958d95a5c1d60821b602083015261006e60406103a9565b600381526223a5a960e91b602082015282519091906001600160401b0381116101c957600d54600181811c9116801561039b575b60208210146102ac57601f8111610338575b506020601f82116001146102d557819293945f926102ca575b50508160011b915f199060031b1c191617600d555b81516001600160401b0381116101c957600e54600181811c911680156102c0575b60208210146102ac57601f8111610249575b50602092601f82116001146101e857928192935f926101dd575b50508160011b915f199060031b1c191617600e555b601380546001600160a01b031916821790555f9081526016602052604090819020805460ff1916600117905551608081016001600160401b038111828210176101c957606491606091604052611f4081526107d060208201525f60408201520152611f406009556107d0600a555f600b556064600c5560405161370190816103cf8239f35b634e487b7160e01b5f52604160045260245ffd5b015190505f8061012f565b601f19821693600e5f52805f20915f5b8681106102315750836001959610610219575b505050811b01600e55610144565b01515f1960f88460031b161c191690555f808061020b565b919260206001819286850151815501940192016101f8565b600e5f527fbb7b4a454dc3493923482f07822329ed19e8244eff582cc204f8554c3620c3fd601f830160051c810191602084106102a2575b601f0160051c01905b8181106102975750610115565b5f815560010161028a565b9091508190610281565b634e487b7160e01b5f52602260045260245ffd5b90607f1690610103565b015190505f806100cd565b601f19821690600d5f52805f20915f5b81811061032057509583600195969710610308575b505050811b01600d556100e2565b01515f1960f88460031b161c191690555f80806102fa565b9192602060018192868b0151815501940192016102e5565b600d5f527fd7b6990105719101dabeb77144f2a3385c8033acd3af97e9423a695e81ad1eb5601f830160051c81019160208410610391575b601f0160051c01905b81811061038657506100b4565b5f8155600101610379565b9091508190610370565b90607f16906100a2565b5f80fd5b6040519190601f01601f191682016001600160401b038111838210176101c95760405256fe6080806040526004361015610011575b005b5f905f3560e01c90816301ffc9a7146127105750806306fdde031461266b578063081812fc1461262f578063095ea7b314612606578063150b7a02146125e35780631785f53c1461257157806323b872dd1461255a57806324d7806c1461251d57806327d35db7146124b3578063316506e91461249657806332648e091461236757806335c7e9251461234a57806342842e0e1461231b57806342e12c831461227a5780634cd995da146122305780635ac09b2b146121525780635fbbc0d2146120f157806362bc56e614611fe65780636352211e14611fb65780637048027514611f4a57806370a0823114611ef9578063737893d714611ea25780638c761f7014611e495780638da5cb5b14611e215780638f35a75e14611d9b57806395d89b4114611cbd578063960524e314611ca05780639c8497ea14611baa578063a039cddf14611ae8578063a22cb46514611ab4578063a3f3a41b14611824578063ad45238514611592578063ad5cb2e11461154b578063b32ede5014611256578063b88d4fde14611230578063c22e20b614611205578063c252b96414610dee578063c2968be614610a29578063c2a63e3b14610a0c578063c4d66de8146109b9578063c87b56dd1461095c578063ce606ee014610933578063e4fd756914610895578063e985e9c51461083d578063f07826401461081f578063f22fbf0d14610801578063f9ea8232146105785763fe7d78a90361000f57346105755761023736612a33565b906102413361357d565b338352600560205260ff600560408520015416156105665733835260056020528060046040852001541061055757335f52600560205280600460405f2001541061054857335f526005602052600460405f200161029f8282546132a3565b90558280808084335af16102b1613274565b5015610539576040518181527f5aeda81453f48138dc47a56ee1e2257044ba095842b028a298439534b246b60a60203392a2601454905f198214610525576001820160145560405161030281612801565b600581526020810190828252604081014281526060820192868452858852601560205260408820925160088110156105115790600393929160ff801985541691161783555160018301555160028201550190518051906001600160401b0382116104fd5781906103728454612933565b601f81116104ad575b50602090601f831160011461044b578892610440575b50508160011b915f199060031b1c19161790555b6040516103b360208261281c565b848152331561042c576001600160a01b036103ce8433612c76565b1661041857906103ee5f5160206136ac5f395f51905f52928433336132b0565b6040519060058252602082015260606040820152806104123395606083019061277b565b0390a380f35b6339e3563760e11b85526004859052602485fd5b633250574960e11b85526004859052602485fd5b015190505f80610391565b8489528189209250601f198416895b818110610495575090846001959493921061047d575b505050811b0190556103a5565b01515f1960f88460031b161c191690555f8080610470565b9293602060018192878601518155019501930161045a565b90915083885260208820601f840160051c810191602085106104f3575b90601f859493920160051c01905b8181106104e5575061037b565b8981558493506001016104d8565b90915081906104ca565b634e487b7160e01b87526041600452602487fd5b634e487b7160e01b89526021600452602489fd5b634e487b7160e01b84526011600452602484fd5b638cd22d1960e01b8352600483fd5b631e9acf1760e31b5f5260045ffd5b631e9acf1760e31b8352600483fd5b6302de3a2360e61b8352600483fd5b80fd5b5061058236612a33565b9061058c3361357d565b8034036107f257338352600560205260ff600560408520015416156105665780156107f2573383526005602052600360408420016105cb828254613267565b90556105d981600254613267565b6002556040518181527f71e787e88091d7b36828528c50fd32b46efef0764519d86f34eb2543bd95492d60203392a2601454905f198214610525576001820160145560405161062781612801565b5f81526020810190828252604081014281526060820192868452858852601560205260408820925160088110156105115790600393929160ff801985541691161783555160018301555160028201550190518051906001600160401b0382116104fd5781906106968454612933565b601f81116107a2575b50602090601f8311600114610740578892610735575b50508160011b915f199060031b1c19161790555b6040516106d760208261281c565b848152331561042c576001600160a01b036106f28433612c76565b1661041857906107125f5160206136ac5f395f51905f52928433336132b0565b604051905f8252602082015260606040820152806104123395606083019061277b565b015190505f806106b5565b8489528189209250601f198416895b81811061078a5750908460019594939210610772575b505050811b0190556106c9565b01515f1960f88460031b161c191690555f8080610765565b9293602060018192878601518155019501930161074f565b90915083885260208820601f840160051c810191602085106107e8575b90601f859493920160051c01905b8181106107da575061069f565b8981558493506001016107cd565b90915081906107bf565b63162908e360e11b8352600483fd5b50346105755780600319360112610575576020600454604051908152f35b50346105755780600319360112610575576020600654604051908152f35b503461057557604036600319011261057557604061085961279f565b916108626127b5565b9260018060a01b031681526012602052209060018060a01b03165f52602052602060ff60405f2054166040519015158152f35b5034610575576020366003190112610575576060906001600160a01b036108ba61279f565b16815260056020526040812090604051916108d4836127e6565b80546001600160a01b031683526108ed6001820161296b565b602084015260028101546040840152600381015492838582015260a060ff6005600485015494856080860152015416151591015260405192835260208301526040820152f35b50346105755780600319360112610575576013546040516001600160a01b039091168152602090f35b346109b55760203660031901126109b557610978600435612c42565b505f60405161098860208261281c565b526109b160405161099a60208261281c565b5f815260405191829160208352602083019061277b565b0390f35b5f80fd5b346109b55760203660031901126109b5576001600160a01b036109da61279f565b16805f52601660205260ff60405f205416156109f257005b5f908152601660205260409020805460ff19166001179055005b346109b5575f3660031901126109b5576020600854604051908152f35b60203660031901126109b5576004356001600160401b0381116109b557610a54903690600401612a18565b3415610ddf57335f525f60205260ff600360405f2001541615610d20575b335f525f602052600160405f2001610a8b348254613267565b9055610a9934600454613267565b600455610aa834600254613267565b6002556040513481527fc00ca83e08bb02235508ecacfa2bcb1c4084793b3025932556ee58763fd643ce60203392a2601454905f198214610d0c576001820160145560405191610af783612801565b600283526020830134815260408401934285526060810194848652835f52601560205260405f209151926008841015610cf85760039360ff801985541691161783555160018301555160028201550192519283516001600160401b038111610ce457610b638254612933565b601f8111610c9f575b50602094601f8211600114610c3e579481929394955f92610c33575b50508160011b915f199060031b1c19161790555b604051610baa60208261281c565b5f81523315610c20576001600160a01b03610bc58333612c76565b16610c0d57610bd6908233336132b0565b5f5160206136ac5f395f51905f52604051600281523460208201526060604082015280610c083395606083019061277b565b0390a3005b6339e3563760e11b5f525f60045260245ffd5b633250574960e11b5f525f60045260245ffd5b015190508580610b88565b601f19821695835f52805f20915f5b888110610c8757508360019596979810610c6f575b505050811b019055610b9c565b01515f1960f88460031b161c19169055858080610c62565b91926020600181928685015181550194019201610c4d565b825f5260205f20601f830160051c81019160208410610cda575b601f0160051c01905b818110610ccf5750610b6c565b5f8155600101610cc2565b9091508190610cb9565b634e487b7160e01b5f52604160045260245ffd5b634e487b7160e01b5f52602160045260245ffd5b634e487b7160e01b5f52601160045260245ffd5b610d9d604051610d2f81612801565b3381526003602082015f8152604083015f8152606084019160018352335f525f60205260405f209460018060a01b039060018060a01b03905116166001600160601b0360a01b86541617855551600185015551600284015551151591019060ff801983541691151516179055565b600154600160401b811015610ce457806001610dbe92016001556001612d84565b81546001600160a01b0360039290921b91821b19163390911b179055610a72565b63162908e360e11b5f5260045ffd5b346109b55760203660031901126109b5576004356001600160401b0381116109b557610e1e903690600401612a18565b335f52600760205260ff600660405f20015416156111e757335f818152600760205260409020546001600160a01b0316036111f657335f52600760205260405f2090604051610e6c816127cb565b82546001600160a01b039081168252600184015416602082019081529260ff90600690610e9b6002820161296b565b60408501526003810154606085015260048101546080850152600581015460a0850152015416159060c082159101526111e757610ed7336134ad565b8015610ddf57612710610eec600c548361349a565b04612710610efc6009548361349a565b0490612710610f0d600a548361349a565b04610f28612710610f20600b548561349a565b0492856132a3565b9584600254106111d857610f4a610f7b94610f42876135ce565b600354613267565b600355516001600160a01b03165f90815260056020526040902060040180549091610f7491613267565b90556135e7565b335f526007602052600560405f2001610f95848254613267565b9055601454905f198214610d0c5760018201601455604051610fb681612801565b600481526020810182815260408201914283526060810192868452855f52601560205260405f209151926008841015610cf85760039360ff801985541691161783555160018301555160028201550190518051906001600160401b038211610ce45781906110248454612933565b601f8111611188575b50602090601f8311600114611125575f9261111a575b50508160011b915f199060031b1c19161790555b6040519061106660208361281c565b5f82523315610c20576001600160a01b036110818433612c76565b16610c0d576110a05f5160206136ac5f395f51905f52928433336132b0565b6040519060048252602082015260606040820152806110c43395606083019061277b565b0390a35f80808084335af16110d7613274565b501561110b576040519081527f541f614f44b2fa12a143cae4cccb6b1379a25a7e71401ffa28e52f64e7a85ebd60203392a2005b638cd22d1960e01b5f5260045ffd5b015190508780611043565b5f8581528281209350601f198516905b8181106111705750908460019594939210611158575b505050811b019055611057565b01515f1960f88460031b161c1916905587808061114b565b92936020600181928786015181550195019301611135565b909150835f5260205f20601f840160051c810191602085106111ce575b90601f859493920160051c01905b8181106111c0575061102d565b5f81558493506001016111b3565b90915081906111a5565b63bb55fd2760e01b5f5260045ffd5b635d70aba760e11b5f5260045ffd5b630ae9c7ed60e01b5f5260045ffd5b346109b55760203660031901126109b557602061122861122361279f565b6134ad565b604051908152f35b346109b55761000f6112413661288e565b92611250828483959495612a62565b336133bd565b346109b55760203660031901126109b5576004356001600160401b0381116109b557611286903690600401612a18565b335f525f60205260ff600360405f200154161561153c57335f908152602081905260409020600181015460039091015460ff161561153c57335f525f60205280600160405f200154106105485780600454106111d857335f525f602052600160405f20016112f58282546132a3565b9055611303816004546132a3565b60045561130f816135ce565b5f80808084335af161131f613274565b501561110b576040518181527f3352c11f42d0e000833029ceed51a96f8dc31113c20eadbd28e72b72d5f6e3d560203392a2601454905f198214610d0c576001820160145560405161137081612801565b600381526020810182815260408201914283526060810192868452855f52601560205260405f209151926008841015610cf85760039360ff801985541691161783555160018301555160028201550190518051906001600160401b038211610ce45781906113de8454612933565b601f81116114ec575b50602090601f8311600114611489575f9261147e575b50508160011b915f199060031b1c19161790555b6040519061142060208361281c565b5f82523315610c20576001600160a01b0361143b8433612c76565b16610c0d5761145a5f5160206136ac5f395f51905f52928433336132b0565b604051906003825260208201526060604082015280610c083395606083019061277b565b0151905086806113fd565b5f8581528281209350601f198516905b8181106114d457509084600195949392106114bc575b505050811b019055611411565b01515f1960f88460031b161c191690558680806114af565b92936020600181928786015181550195019301611499565b909150835f5260205f20601f840160051c81019160208510611532575b90601f859493920160051c01905b81811061152457506113e7565b5f8155849350600101611517565b9091508190611509565b6379d9ea8360e11b5f5260045ffd5b346109b5575f3660031901126109b557611563612c16565b805160208083015160408085015160609586015182519586529385019290925283015291810191909152608090f35b346109b5576115a036612a33565b6013549091906001600160a01b0316338114158061180d575b6117ff5760035482811061054857826115d1916132a3565b6003555f80808085855af16115e4613274565b501561110b577fd116803f8b8538a601b6096e8d1196e3ce3ef43dec6dbbe4cd4e5c69dd171d8b6020604051848152a2601454905f198214610d0c576001820160145560405161163381612801565b600781526020810182815260408201914283526060810192868452855f52601560205260405f209151926008841015610cf85760039360ff801985541691161783555160018301555160028201550190518051906001600160401b038211610ce45781906116a18454612933565b601f81116117af575b50602090601f831160011461174c575f92611741575b50508160011b915f199060031b1c19161790555b604051906116e360208361281c565b5f82523315610c20576001600160a01b036116fe8433612c76565b16610c0d5761171d5f5160206136ac5f395f51905f52928433336132b0565b604051906007825260208201526060604082015280610c083395606083019061277b565b0151905086806116c0565b5f8581528281209350601f198516905b818110611797575090846001959493921061177f575b505050811b0190556116d4565b01515f1960f88460031b161c19169055868080611772565b9293602060018192878601518155019501930161175c565b909150835f5260205f20601f840160051c810191602085106117f5575b90601f859493920160051c01905b8181106117e757506116aa565b5f81558493506001016117da565b90915081906117cc565b6282b42960e81b5f5260045ffd5b50335f52601660205260ff60405f205416156115b9565b346109b55761183236612a33565b9050335f525f60205260ff600360405f200154161561153c57335f525f60205260ff600360405f200154161561153c57335f525f602052600260405f200154801561054857335f525f6020525f60026040822001555f80808084335af1611897613274565b501561110b576040518181527f8a7a71b8ba594f353cdb3f8f3e89ccff6fc5203a740304baa12edb9ede43918560203392a2601454905f198214610d0c57600182016014556040516118e881612801565b600681526020810182815260408201914283526060810192868452855f52601560205260405f209151926008841015610cf85760039360ff801985541691161783555160018301555160028201550190518051906001600160401b038211610ce45781906119568454612933565b601f8111611a64575b50602090601f8311600114611a01575f926119f6575b50508160011b915f199060031b1c19161790555b6040519061199860208361281c565b5f82523315610c20576001600160a01b036119b38433612c76565b16610c0d576119d25f5160206136ac5f395f51905f52928433336132b0565b604051906006825260208201526060604082015280610c083395606083019061277b565b015190508680611975565b5f8581528281209350601f198516905b818110611a4c5750908460019594939210611a34575b505050811b019055611989565b01515f1960f88460031b161c19169055868080611a27565b92936020600181928786015181550195019301611a11565b909150835f5260205f20601f840160051c81019160208510611aaa575b90601f859493920160051c01905b818110611a9c575061195f565b5f8155849350600101611a8f565b9091508190611a81565b346109b55760403660031901126109b557611acd61279f565b50602435801515036109b557638cd22d1960e01b5f5260045ffd5b346109b55760203660031901126109b557606080604051611b0881612801565b5f81525f60208201525f604082015201526004355f52601560205260405f20604051611b3381612801565b60ff8254166008811015610cf857611b8d926109b191835260018101549060208401918252611b706003600283015492604087019384520161296b565b916060850192835260405195869560208752602087019051612a0b565b5160408501525160608401525160808084015260a083019061277b565b346109b55760803660031901126109b557600435602435604435916064359260018060a01b036013541633141580611c89575b6117ff57612710611bf782611bf28686613267565b613267565b11611c7a5783611c75917f58ee77c9f5b50426dc036dff11919df1099b3ca39cf4823cecb182e34465a2f7956060604051611c3181612801565b86815287602082015283604082015201528360095584600a5580600b5581600c55604051948594859094939260609260808301968352602083015260408201520152565b0390a1005b63369276d760e11b5f5260045ffd5b50335f52601660205260ff60405f20541615611bdd565b346109b5575f3660031901126109b5576020600154604051908152f35b346109b5575f3660031901126109b5576040515f600e54611cdd81612933565b8084529060018116908115611d775750600114611d19575b6109b183611d058185038261281c565b60405191829160208352602083019061277b565b600e5f9081527fbb7b4a454dc3493923482f07822329ed19e8244eff582cc204f8554c3620c3fd939250905b808210611d5d57509091508101602001611d05611cf5565b919260018160209254838588010152019101909291611d45565b60ff191660208086019190915291151560051b84019091019150611d059050611cf5565b346109b55760203660031901126109b5576001600160a01b03611dbc61279f565b165f525f6020526080606060405f20604051611dd781612801565b60018060a01b03825416815260018201549081602082015260ff600360028501549485604085015201541615159384910152604051928352602083015260408201525f6060820152f35b346109b5575f3660031901126109b5576013546040516001600160a01b039091168152602090f35b346109b55760403660031901126109b557611e6261279f565b611e6a612d6d565b6001600160a01b03165f8181526007602052604090206006015460ff16156111e7575f526007602052602435600460405f2001555f80f35b346109b55760803660031901126109b557611ebb61279f565b611ec36127b5565b90604435916001600160401b0383116109b557611ee761000f933690600401612a18565b90611ef0612d6d565b60643592612ff6565b346109b55760203660031901126109b5576001600160a01b03611f1a61279f565b168015611f37575f526010602052602060405f2054604051908152f35b6322718ad960e21b5f525f60045260245ffd5b346109b55760203660031901126109b557611f6361279f565b6013546001600160a01b031633141580611f9f575b6117ff576001600160a01b03165f908152601660205260409020805460ff19166001179055005b50335f52601660205260ff60405f20541615611f78565b346109b55760203660031901126109b5576020611fd4600435612c42565b6040516001600160a01b039091168152f35b346109b55760203660031901126109b557611fff61279f565b5f60a060405161200e816127e6565b82815260606020820152826040820152826060820152826080820152015260018060a01b03165f52600560205260405f2060405161204b816127e6565b81546001600160a01b031681526120646001830161296b565b9160208201928352600281015490604083019182526003810154906060840191825260ff6005600483015492608087019384520154169160a0850192151583526120d26040519687966020885260018060a01b0390511660208801525160c0604088015260e087019061277b565b935160608601525160808501525160a084015251151560c08301520390f35b346109b5575f3660031901126109b5575f606060405161211081612801565b8281528260208201528260408201520152608061212b612c16565b60606040519180518352602081015160208401526040810151604084015201516060820152f35b346109b55760203660031901126109b5576001600160a01b0361217361279f565b165f52600760205260405f2060c06040519161218e836127cb565b80546001600160a01b03908116845260018201541660208401908152906121b76002820161296b565b9384604082015261221c60038301549384606084015260048401549283608082015260ff60066005870154968760a08501520154161515968791015260018060a01b03905116956040519687968752602087015260c0604087015260c086019061277b565b926060850152608084015260a08301520390f35b346109b55760403660031901126109b55761224961279f565b602435906001600160401b0382116109b55761226c61000f923690600401612a18565b90612275612d6d565b612dad565b346109b55760203660031901126109b5576001600160a01b0361229b61279f565b165f52600560205260405f2060a06040516122b5816127e6565b600180831b03835416815260ff60056122d06001860161296b565b94856020850152600281015460408501526003810154606085015260048101546080850152015416151591829101526109b1604051928392835260406020840152604083019061277b565b346109b55761000f61232c366128f9565b906040519261233c60208561281c565b5f8452611250838383612a62565b346109b5575f3660031901126109b5576020600254604051908152f35b346109b55760203660031901126109b55761238061279f565b5f60c060405161238f816127cb565b828152826020820152606060408201528260608201528260808201528260a0820152015260018060a01b03165f52600760205260405f206040516123d2816127cb565b81546001600160a01b03908116825260018301541660208201908152916123fb6002820161296b565b604083019081526003820154916060840192835260048101546080850190815261247760ff600660058501549460a089019586520154169360c0870194151585526040519788976020895260018060a01b03905116602089015260018060a01b0390511660408801525160e0606088015261010087019061277b565b935160808601525160a08501525160c084015251151560e08301520390f35b346109b5575f3660031901126109b5576020600354604051908152f35b346109b55760203660031901126109b5576004355f52601560205261250260405f206109b160ff825416916001810154906124f560036002830154920161296b565b9160405195868096612a0b565b6020850152604084015260806060840152608083019061277b565b346109b55760203660031901126109b5576001600160a01b0361253e61279f565b165f526016602052602060ff60405f2054166040519015158152f35b346109b55761000f61256b366128f9565b91612a62565b346109b55760203660031901126109b55761258a61279f565b6013546001600160a01b03169033821415806125cc575b6117ff576001600160a01b03169081146117ff575f908152601660205260409020805460ff19169055005b50335f52601660205260ff60405f205416156125a1565b346109b5576125f13661288e565b505050506020604051630a85bd0160e11b8152f35b346109b55760403660031901126109b55761261f61279f565b50638cd22d1960e01b5f5260045ffd5b346109b55760203660031901126109b55760043561264c81612c42565b505f526011602052602060018060a01b0360405f205416604051908152f35b346109b5575f3660031901126109b5576040515f600d5461268b81612933565b8084529060018116908115611d7757506001146126b2576109b183611d058185038261281c565b600d5f9081527fd7b6990105719101dabeb77144f2a3385c8033acd3af97e9423a695e81ad1eb5939250905b8082106126f657509091508101602001611d05611cf5565b9192600181602092548385880101520191019092916126de565b346109b55760203660031901126109b5576004359063ffffffff60e01b82168092036109b5576020916380ac58cd60e01b811490811561276a575b8115612759575b5015158152f35b6301ffc9a760e01b14905083612752565b635b5e139f60e01b8114915061274b565b805180835260209291819084018484015e5f828201840152601f01601f1916010190565b600435906001600160a01b03821682036109b557565b602435906001600160a01b03821682036109b557565b60e081019081106001600160401b03821117610ce457604052565b60c081019081106001600160401b03821117610ce457604052565b608081019081106001600160401b03821117610ce457604052565b90601f801991011681019081106001600160401b03821117610ce457604052565b6001600160401b038111610ce457601f01601f191660200190565b9291926128648261283d565b91612872604051938461281c565b8294818452818301116109b5578281602093845f960137010152565b9060806003198301126109b5576004356001600160a01b03811681036109b557916024356001600160a01b03811681036109b5579160443591606435906001600160401b0382116109b557806023830112156109b5578160246128f693600401359101612858565b90565b60609060031901126109b5576004356001600160a01b03811681036109b557906024356001600160a01b03811681036109b5579060443590565b90600182811c92168015612961575b602083101461294d57565b634e487b7160e01b5f52602260045260245ffd5b91607f1691612942565b9060405191825f82549261297e84612933565b80845293600181169081156129e957506001146129a5575b506129a39250038361281c565b565b90505f9291925260205f20905f915b8183106129cd5750509060206129a3928201015f612996565b60209193508060019154838589010152019101909184926129b4565b9050602092506129a394915060ff191682840152151560051b8201015f612996565b906008821015610cf85752565b9080601f830112156109b5578160206128f693359101612858565b9060406003198301126109b55760043591602435906001600160401b0382116109b5576128f691600401612a18565b6001600160a01b0390911691908215610c20575f828152600f60205260409020546001600160a01b0316151580612c0e575b61110b575f828152600f60205260409020546001600160a01b031692829033151580612b79575b5084612b45575b805f52601060205260405f2060018154019055815f52600f60205260405f20816001600160601b0360a01b825416179055847fddf252ad1be2c89b69c2b068fc378daa952ba7f163c4a11628f55a4df523b3ef5f80a46001600160a01b0316808303612b2d57505050565b6364283d7b60e01b5f5260045260245260445260645ffd5b815f52601160205260405f206001600160601b0360a01b8154169055845f52601060205260405f205f198154019055612ac2565b90915080612bbd575b15612b8f5782905f612abb565b8284612ba757637e27328960e01b5f5260045260245ffd5b63177e802f60e01b5f523360045260245260445ffd5b503384148015612bec575b80612b8257505f838152601160205260409020546001600160a01b03163314612b82565b505f84815260126020908152604080832033845290915290205460ff16612bc8565b506001612a94565b60405190612c2382612801565b6009548252600a546020830152600b546040830152600c546060830152565b5f818152600f60205260409020546001600160a01b0316908115612c64575090565b637e27328960e01b5f5260045260245ffd5b5f828152600f60205260409020549091906001600160a01b0316151580612d5b575b61110b575f818152600f60205260409020546001600160a01b03169182612d27575b6001600160a01b031680612d0f575b815f52600f60205260405f20816001600160601b0360a01b825416179055827fddf252ad1be2c89b69c2b068fc378daa952ba7f163c4a11628f55a4df523b3ef5f80a490565b805f52601060205260405f2060018154019055612cc9565b815f52601160205260405f206001600160601b0360a01b8154169055825f52601060205260405f205f198154019055612cba565b506001600160a01b0382161515612c98565b335f52601660205260ff60405f205416156117ff57565b8054821015612d99575f5260205f2001905f90565b634e487b7160e01b5f52603260045260245ffd5b60018060a01b031690815f52600560205260ff600560405f20015416612ff257604051612dd9816127e6565b82815260208082018381525f60408085018281526060860183815260808701848152600160a089018181528b8752600590985293909420965187546001600160a01b0319166001600160a01b0391909116178755935180519394939192870191906001600160401b038211610ce457612e528354612933565b601f8111612fad575b50602090601f8311600114612f3f579180612ebc999896949260059896945f92612f34575b50508160011b915f199060031b1c19161790555b51600286015551600385015551600484015551151591019060ff801983541691151516179055565b600654600160401b811015610ce4577f76686aa361308f4a08557cca1a847299ce61e5602a3495cd359a599a1dca438c91612f02826001612f2f94016006556006612d84565b81549060031b9086821b9160018060a01b03901b191617905560405191829160208352602083019061277b565b0390a2565b015190505f80612e80565b90601f19831691845f52815f20925f5b818110612f95575092600192859260059a9896612ebc9d9c9a989610612f7d575b505050811b019055612e94565b01515f1960f88460031b161c191690555f8080612f70565b92936020600181928786015181550195019301612f4f565b835f5260205f20601f840160051c81019160208510612fe8575b601f0160051c01905b818110612fdd5750612e5b565b5f8155600101612fd0565b9091508190612fc7565b5050565b6001600160a01b03165f818152600760205260409020600601549092919060ff166132615760018060a01b031692835f52600560205260ff600560405f20015416156132525760405190613049826127cb565b83825260208083018681526040808501868152606086019485525f6080870181815260a08801828152600160c08a018181528c8552600790985294909220975188546001600160a01b03199081166001600160a01b03928316178a55955194890180549096169416939093179093555180519394929391929160028701916001600160401b038211610ce4576130df8354612933565b601f811161320d575b50602090601f831160011461319f579180613149999896949260069896945f92613194575b50508160011b915f199060031b1c19161790555b51600386015551600485015551600584015551151591019060ff801983541691151516179055565b600854600160401b811015610ce4577fc7b8ebf52ebf4d1384b6ec0c9b34e4f01dfe3bd1aacc6211495d69f7c66e5af391612f0282600161318f94016008556008612d84565b0390a3565b015190505f8061310d565b90601f19831691845f52815f20925f5b8181106131f5575092600192859260069a98966131499d9c9a9896106131dd575b505050811b019055613121565b01515f1960f88460031b161c191690555f80806131d0565b929360206001819287860151815501950193016131af565b835f5260205f20601f840160051c81019160208510613248575b601f0160051c01905b81811061323d57506130e8565b5f8155600101613230565b9091508190613227565b6302de3a2360e61b5f5260045ffd5b50505050565b91908201809211610d0c57565b3d1561329e573d906132858261283d565b91613293604051938461281c565b82523d5f602084013e565b606090565b91908203918211610d0c57565b9291813b6132be5750505050565b604051630a85bd0160e11b81526001600160a01b0394851660048201525f6024820152604481019190915260806064820152921691906020908290819061330990608483019061277b565b03815f865af15f9181613378575b506133455750613325613274565b805190816133405782633250574960e11b5f5260045260245ffd5b602001fd5b6001600160e01b03191663757a42ff60e11b0161336657505f808080613261565b633250574960e11b5f5260045260245ffd5b9091506020813d6020116133b5575b816133946020938361281c565b810103126109b557516001600160e01b0319811681036109b557905f613317565b3d9150613387565b823b6133cb575b5050505050565b604051630a85bd0160e11b81526001600160a01b03918216600482015291811660248301526044820193909352608060648201529116916020908290819061341790608483019061277b565b03815f865af15f9181613455575b506134335750613325613274565b6001600160e01b03191663757a42ff60e11b0161336657505f808080806133c4565b9091506020813d602011613492575b816134716020938361281c565b810103126109b557516001600160e01b0319811681036109b557905f613425565b3d9150613464565b81810292918115918404141715610d0c57565b60018060a01b03165f52600760205260405f206040516134cc816127cb565b81546001600160a01b03908116825260018301541660208201526134f26002830161296b565b60408201526135396003830154601e60608401938285526004860154906080810191825260c060ff600660058a01549960a085019a8b52015416151591015251910461349a565b9051601e810290808204601e1490151715610d0c5760649004808210156135755750905b518082111561356f576128f6916132a3565b50505f90565b90509061355d565b6001600160a01b03165f818152600560208190526040909120015460ff1615613252575f908152600560205260409020546001600160a01b031633036135bf57565b63149f740160e01b5f5260045ffd5b600254908082106111d8576135e2916132a3565b600255565b801580156136a1575b61369e576001545f5b81811061360557505050565b600154811015612d99577fb10e2d527612073b26eecdfd717e6a320cf44b4afac2b0732d9fcbe2b7fa0cf68101546001600160a01b03165f8181526020819052604090206001015490919061365b90859061349a565b91600454801561368a5760019304905f525f602052613682600260405f2001918254613267565b9055016135f9565b634e487b7160e01b5f52601260045260245ffd5b50565b50600454156135f056fe203af4e266d9353f4869604ec4c3ee79d16b9b3377af712cbf5b541d7a38168ea2646970667358221220510717d701b06af3a6637d8232f54c5a0dd8e7fc48efe5e57bfbeb71102d824364736f6c634300081e0033","linkReferences":{}},"methodIdentifiers":{"addAdmin(address)":"70480275","addEmployee(address,address,string,uint256)":"737893d7","approve(address,uint256)":"095ea7b3","balanceOf(address)":"70a08231","calculateEmployeeEligibleWithdrawal(address)":"c22e20b6","contractOwner()":"ce606ee0","depositInvestorLiquidity(string)":"c2968be6","getApproved(uint256)":"081812fc","getCompany(address)":"62bc56e6","getCompanyCount()":"f0782640","getCompanyInfo(address)":"42e12c83","getCompanyLiquidity(address)":"e4fd7569","getEmployee(address)":"32648e09","getEmployeeCount()":"c2a63e3b","getEmployeeInfo(address)":"5ac09b2b","getFeeConfig()":"5fbbc0d2","getFeeConfiguration()":"ad5cb2e1","getInvestor(address)":"8f35a75e","getInvestorCount()":"960524e3","getPlatformFeeBalance()":"316506e9","getReceiptData(uint256)":"a039cddf","getTotalInvestorLiquidity()":"f22fbf0d","getTotalLiquidity()":"35c7e925","initialize(address)":"c4d66de8","isAdmin(address)":"24d7806c","isApprovedForAll(address,address)":"e985e9c5","lockCompanyLiquidity(uint256,string)":"f9ea8232","name()":"06fdde03","onERC721Received(address,address,uint256,bytes)":"150b7a02","owner()":"8da5cb5b","ownerOf(uint256)":"6352211e","receiptData(uint256)":"27d35db7","registerCompany(address,string)":"4cd995da","removeAdmin(address)":"1785f53c","safeTransferFrom(address,address,uint256)":"42842e0e","safeTransferFrom(address,address,uint256,bytes)":"b88d4fde","setApprovalForAll(address,bool)":"a22cb465","supportsInterface(bytes4)":"01ffc9a7","symbol()":"95d89b41","tokenURI(uint256)":"c87b56dd","transferFrom(address,address,uint256)":"23b872dd","updateEmployeeDaysWorked(address,uint256)":"8c761f70","updateFeeConfig(uint256,uint256,uint256,uint256)":"9c8497ea","withdrawAllInvestorLiquidity(string)":"b32ede50","withdrawCompanyReward(uint256,string)":"fe7d78a9","withdrawInvestorReward(uint256,string)":"a3f3a41b","withdrawPlatformFee(uint256,string)":"ad452385","withdrawSalary(string)":"c252b964"},"id":37}