{"abi":[{"type":"constructor","inputs":[{"name":"_implementation","type":"address","internalType":"address"},{"name":"_admin","type":"address","internalType":"address"}],"stateMutability":"nonpayable"},{"type":"fallback","stateMutability":"payable"},{"type":"receive","stateMutability":"payable"},{"type":"function","name":"loadAdmin","inputs":[],"outputs":[{"name":"","type":"address","internalType":"address"}],"stateMutability":"view"},{"type":"function","name":"loadImplementation","inputs":[],"outputs":[{"name":"","type":"address","internalType":"address"}],"stateMutability":"view"}],"bytecode":{"object":"0x608034609f57601f6101f738819003918201601f19168301916001600160401b0383118484101760a3578084926040948552833981010312609f57604b602060458360b7565b920160b7565b907f38ab79285b5e41dcb3803fcc16931994d43763d18af2c707ded35893844b232e557f0b5902c8a0f4c8fdcb6ab1830f7d47fba222fe7765b688a44f98570d3745cb255560405161012c90816100cb8239f35b5f80fd5b634e487b7160e01b5f52604160045260245ffd5b51906001600160a01b0382168203609f5756fe608060405260043610156015575b3660b95760b9565b5f3560e01c806308f7e48b146076576364806a9303600d57346072575f3660031901126072577f38ab79285b5e41dcb3803fcc16931994d43763d18af2c707ded35893844b232e546040516001600160a01b039091168152602090f35b5f80fd5b346072575f3660031901126072577f0b5902c8a0f4c8fdcb6ab1830f7d47fba222fe7765b688a44f98570d3745cb25546001600160a01b03166080908152602090f35b5f807f38ab79285b5e41dcb3803fcc16931994d43763d18af2c707ded35893844b232e54368280378136915af43d5f803e1560f2573d5ff35b3d5ffdfea264697066735822122084b8ed7daabe0f3de291c3373ce0ccf80d4ec26d72d169737a030523f158c74464736f6c634300081e0033","linkReferences":{}},"methodIdentifiers":{"loadAdmin()":"08f7e48b","loadImplementation()":"64806a93"},"id":38}