{"abi":[{"type":"function","name":"getCompanyCount","inputs":[],"outputs":[{"name":"","type":"uint256","internalType":"uint256"}],"stateMutability":"view"}],"bytecode":{"object":"0x608080604052346013576075908160188239f35b5f80fdfe60808060405260043610156011575f80fd5b5f3560e01c63f0782640146023575f80fd5b34603b575f366003190112603b576020906001548152f35b5f80fdfea26469706673582212203c4dee4642c1990760c178acd14f8b53d76336cad0ae9bae4ed6ce653e5f31a664736f6c634300081e0033","linkReferences":{}},"methodIdentifiers":{"getCompanyCount()":"f0782640"},"id":45}