{"abi":[{"type":"function","name":"getCompanyCount","inputs":[],"outputs":[{"name":"","type":"uint256","internalType":"uint256"}],"stateMutability":"view"}],"bytecode":{"object":"0x608080604052346013576075908160188239f35b5f80fdfe60808060405260043610156011575f80fd5b5f3560e01c63f0782640146023575f80fd5b34603b575f366003190112603b576020906001548152f35b5f80fdfea264697066735822122051dd6295bb76cf8e9e2a80b14a5ca7dbae25954a906141be1f25d513e96d593d64736f6c634300081e0033","linkReferences":{}},"methodIdentifiers":{"getCompanyCount()":"f0782640"},"id":51}