{"abi":[{"type":"function","name":"getInvestorCount","inputs":[],"outputs":[{"name":"","type":"uint256","internalType":"uint256"}],"stateMutability":"view"},{"type":"function","name":"getPlatformFeeBalance","inputs":[],"outputs":[{"name":"","type":"uint256","internalType":"uint256"}],"stateMutability":"view"},{"type":"function","name":"getTotalInvestorLiquidity","inputs":[],"outputs":[{"name":"","type":"uint256","internalType":"uint256"}],"stateMutability":"view"},{"type":"function","name":"getTotalLiquidity","inputs":[],"outputs":[{"name":"","type":"uint256","internalType":"uint256"}],"stateMutability":"view"}],"bytecode":{"object":"0x6080806040523460145760e690816100198239f35b5f80fdfe60808060405260043610156011575f80fd5b5f3560e01c908163316506e91460985750806335c7e92514607d578063960524e31460625763f22fbf0d146043575f80fd5b34605e575f366003190112605e576020600454604051908152f35b5f80fd5b34605e575f366003190112605e576020600154604051908152f35b34605e575f366003190112605e576020600254604051908152f35b34605e575f366003190112605e576020906003548152f3fea2646970667358221220f4f203f8e92018843df688af4f7aff0ac61779eb571b638c73f6dc1ed2d1fd0f64736f6c634300081e0033","linkReferences":{}},"methodIdentifiers":{"getInvestorCount()":"960524e3","getPlatformFeeBalance()":"316506e9","getTotalInvestorLiquidity()":"f22fbf0d","getTotalLiquidity()":"35c7e925"},"id":48}