{"abi":[{"type":"constructor","inputs":[{"name":"initialOwner","type":"address","internalType":"address"}],"stateMutability":"nonpayable"},{"type":"function","name":"approve","inputs":[{"name":"","type":"address","internalType":"address"},{"name":"","type":"uint256","internalType":"uint256"}],"outputs":[],"stateMutability":"nonpayable"},{"type":"function","name":"balanceOf","inputs":[{"name":"owner","type":"address","internalType":"address"}],"outputs":[{"name":"","type":"uint256","internalType":"uint256"}],"stateMutability":"view"},{"type":"function","name":"getApproved","inputs":[{"name":"tokenId","type":"uint256","internalType":"uint256"}],"outputs":[{"name":"","type":"address","internalType":"address"}],"stateMutability":"view"},{"type":"function","name":"getReceiptData","inputs":[{"name":"_tokenId","type":"uint256","internalType":"uint256"}],"outputs":[{"name":"","type":"tuple","internalType":"struct ReceiptNFTModule.ReceiptData","components":[{"name":"txType","type":"uint8","internalType":"enum Enums.TxType"},{"name":"amount","type":"uint256","internalType":"uint256"},{"name":"timestamp","type":"uint256","internalType":"uint256"},{"name":"cid","type":"string","internalType":"string"}]}],"stateMutability":"view"},{"type":"function","name":"isApprovedForAll","inputs":[{"name":"owner","type":"address","internalType":"address"},{"name":"operator","type":"address","internalType":"address"}],"outputs":[{"name":"","type":"bool","internalType":"bool"}],"stateMutability":"view"},{"type":"function","name":"name","inputs":[],"outputs":[{"name":"","type":"string","internalType":"string"}],"stateMutability":"view"},{"type":"function","name":"owner","inputs":[],"outputs":[{"name":"","type":"address","internalType":"address"}],"stateMutability":"view"},{"type":"function","name":"ownerOf","inputs":[{"name":"tokenId","type":"uint256","internalType":"uint256"}],"outputs":[{"name":"","type":"address","internalType":"address"}],"stateMutability":"view"},{"type":"function","name":"receiptData","inputs":[{"name":"","type":"uint256","internalType":"uint256"}],"outputs":[{"name":"txType","type":"uint8","internalType":"enum Enums.TxType"},{"name":"amount","type":"uint256","internalType":"uint256"},{"name":"timestamp","type":"uint256","internalType":"uint256"},{"name":"cid","type":"string","internalType":"string"}],"stateMutability":"view"},{"type":"function","name":"safeTransferFrom","inputs":[{"name":"from","type":"address","internalType":"address"},{"name":"to","type":"address","internalType":"address"},{"name":"tokenId","type":"uint256","internalType":"uint256"}],"outputs":[],"stateMutability":"nonpayable"},{"type":"function","name":"safeTransferFrom","inputs":[{"name":"from","type":"address","internalType":"address"},{"name":"to","type":"address","internalType":"address"},{"name":"tokenId","type":"uint256","internalType":"uint256"},{"name":"data","type":"bytes","internalType":"bytes"}],"outputs":[],"stateMutability":"nonpayable"},{"type":"function","name":"setApprovalForAll","inputs":[{"name":"","type":"address","internalType":"address"},{"name":"","type":"bool","internalType":"bool"}],"outputs":[],"stateMutability":"nonpayable"},{"type":"function","name":"supportsInterface","inputs":[{"name":"interfaceId","type":"bytes4","internalType":"bytes4"}],"outputs":[{"name":"","type":"bool","internalType":"bool"}],"stateMutability":"view"},{"type":"function","name":"symbol","inputs":[],"outputs":[{"name":"","type":"string","internalType":"string"}],"stateMutability":"view"},{"type":"function","name":"tokenURI","inputs":[{"name":"tokenId","type":"uint256","internalType":"uint256"}],"outputs":[{"name":"","type":"string","internalType":"string"}],"stateMutability":"view"},{"type":"function","name":"transferFrom","inputs":[{"name":"from","type":"address","internalType":"address"},{"name":"to","type":"address","internalType":"address"},{"name":"tokenId","type":"uint256","internalType":"uint256"}],"outputs":[],"stateMutability":"nonpayable"},{"type":"event","name":"Approval","inputs":[{"name":"owner","type":"address","indexed":true,"internalType":"address"},{"name":"approved","type":"address","indexed":true,"internalType":"address"},{"name":"tokenId","type":"uint256","indexed":true,"internalType":"uint256"}],"anonymous":false},{"type":"event","name":"ApprovalForAll","inputs":[{"name":"owner","type":"address","indexed":true,"internalType":"address"},{"name":"operator","type":"address","indexed":true,"internalType":"address"},{"name":"approved","type":"bool","indexed":false,"internalType":"bool"}],"anonymous":false},{"type":"event","name":"Transfer","inputs":[{"name":"from","type":"address","indexed":true,"internalType":"address"},{"name":"to","type":"address","indexed":true,"internalType":"address"},{"name":"tokenId","type":"uint256","indexed":true,"internalType":"uint256"}],"anonymous":false},{"type":"error","name":"ERC721IncorrectOwner","inputs":[{"name":"sender","type":"address","internalType":"address"},{"name":"tokenId","type":"uint256","internalType":"uint256"},{"name":"owner","type":"address","internalType":"address"}]},{"type":"error","name":"ERC721InsufficientApproval","inputs":[{"name":"operator","type":"address","internalType":"address"},{"name":"tokenId","type":"uint256","internalType":"uint256"}]},{"type":"error","name":"ERC721InvalidApprover","inputs":[{"name":"approver","type":"address","internalType":"address"}]},{"type":"error","name":"ERC721InvalidOperator","inputs":[{"name":"operator","type":"address","internalType":"address"}]},{"type":"error","name":"ERC721InvalidOwner","inputs":[{"name":"owner","type":"address","internalType":"address"}]},{"type":"error","name":"ERC721InvalidReceiver","inputs":[{"name":"receiver","type":"address","internalType":"address"}]},{"type":"error","name":"ERC721InvalidSender","inputs":[{"name":"sender","type":"address","internalType":"address"}]},{"type":"error","name":"ERC721NonexistentToken","inputs":[{"name":"tokenId","type":"uint256","internalType":"uint256"}]},{"type":"error","name":"TransferNotAllowed","inputs":[]}],"bytecode":{"object":"0x60806040523461033e57610fab6020813803918261001c81610342565b93849283398101031261033e57516001600160a01b0381169081900361033e576100466040610342565b90601082526f11d85a9a52da5d1848149958d95a5c1d60821b602083015261006e6040610342565b600381526223a5a960e91b602082015282519091906001600160401b038111610252575f54600181811c91168015610334575b602082101461023457601f81116102d2575b506020601f821160011461027157819293945f92610266575b50508160011b915f199060031b1c1916175f555b81516001600160401b03811161025257600154600181811c91168015610248575b602082101461023457601f81116101d1575b50602092601f821160011461017057928192935f92610165575b50508160011b915f199060031b1c1916176001555b600680546001600160a01b031916919091179055604051610c4390816103688239f35b015190505f8061012d565b601f1982169360015f52805f20915f5b8681106101b957508360019596106101a1575b505050811b01600155610142565b01515f1960f88460031b161c191690555f8080610193565b91926020600181928685015181550194019201610180565b60015f527fb10e2d527612073b26eecdfd717e6a320cf44b4afac2b0732d9fcbe2b7fa0cf6601f830160051c8101916020841061022a575b601f0160051c01905b81811061021f5750610113565b5f8155600101610212565b9091508190610209565b634e487b7160e01b5f52602260045260245ffd5b90607f1690610101565b634e487b7160e01b5f52604160045260245ffd5b015190505f806100cc565b601f198216905f8052805f20915f5b8181106102ba575095836001959697106102a2575b505050811b015f556100e0565b01515f1960f88460031b161c191690555f8080610295565b9192602060018192868b015181550194019201610280565b5f80527f290decd9548b62a8d60345a988386fc84ba6bc95484008f6362f93160ef3e563601f830160051c8101916020841061032a575b601f0160051c01905b81811061031f57506100b3565b5f8155600101610312565b9091508190610309565b90607f16906100a1565b5f80fd5b6040519190601f01601f191682016001600160401b038111838210176102525760405256fe6080806040526004361015610012575f80fd5b5f905f3560e01c90816301ffc9a7146106915750806306fdde03146105d9578063081812fc1461059d578063095ea7b31461057457806323b872dd1461055d57806327d35db7146104f357806342842e0e146104ca5780636352211e1461049a57806370a08231146104495780638da5cb5b1461042157806395d89b4114610319578063a039cddf14610243578063a22cb4651461020f578063b88d4fde14610185578063c87b56dd146101285763e985e9c5146100ce575f80fd5b346101255760403660031901126101255760406100e9610720565b916100f2610736565b9260018060a01b031681526005602052209060018060a01b03165f52602052602060ff60405f2054166040519015158152f35b80fd5b3461018157602036600319011261018157610144600435610bd9565b505f6040516101546020826107b6565b5261017d6040516101666020826107b6565b5f81526040519182916020835260208301906106fc565b0390f35b5f80fd5b346101815760803660031901126101815761019e610720565b6101a6610736565b6064359167ffffffffffffffff83116101815736602384011215610181578260040135916101d38361089d565b926101e160405194856107b6565b8084523660248287010111610181576020815f92602461020d9801838801378501015260443591610a99565b005b3461018157604036600319011261018157610228610720565b506024358015150361018157638cd22d1960e01b5f5260045ffd5b346101815760203660031901126101815760608060405161026381610786565b5f81525f60208201525f604082015201526004355f52600860205260405f2060405161028e81610786565b60ff8254166008811015610305576102e89261017d918352600181015490602084019182526102cb600360028301549260408701938452016107d8565b916060850192835260405195869560208752602087019051610890565b5160408501525160608401525160808084015260a08301906106fc565b634e487b7160e01b5f52602160045260245ffd5b34610181575f366003190112610181576040515f6001548060011c90600181168015610417575b602083108114610403578285529081156103df5750600114610381575b61017d8361036d818503826107b6565b6040519182916020835260208301906106fc565b60015f9081527fb10e2d527612073b26eecdfd717e6a320cf44b4afac2b0732d9fcbe2b7fa0cf6939250905b8082106103c55750909150810160200161036d61035d565b9192600181602092548385880101520191019092916103ad565b60ff191660208086019190915291151560051b8401909101915061036d905061035d565b634e487b7160e01b5f52602260045260245ffd5b91607f1691610340565b34610181575f366003190112610181576006546040516001600160a01b039091168152602090f35b34610181576020366003190112610181576001600160a01b0361046a610720565b168015610487575f526003602052602060405f2054604051908152f35b6322718ad960e21b5f525f60045260245ffd5b346101815760203660031901126101815760206104b8600435610bd9565b6040516001600160a01b039091168152f35b346101815761020d6104db3661074c565b90604051926104eb6020856107b6565b5f8452610a99565b34610181576020366003190112610181576004355f52600860205261054260405f2061017d60ff825416916001810154906105356003600283015492016107d8565b9160405195868096610890565b602085015260408401526080606084015260808301906106fc565b346101815761020d61056e3661074c565b916108b9565b346101815760403660031901126101815761058d610720565b50638cd22d1960e01b5f5260045ffd5b34610181576020366003190112610181576004356105ba81610bd9565b505f526004602052602060018060a01b0360405f205416604051908152f35b34610181575f366003190112610181576040515f5f548060011c90600181168015610687575b602083108114610403578285529081156103df575060011461062b5761017d8361036d818503826107b6565b5f8080527f290decd9548b62a8d60345a988386fc84ba6bc95484008f6362f93160ef3e563939250905b80821061066d5750909150810160200161036d61035d565b919260018160209254838588010152019101909291610655565b91607f16916105ff565b34610181576020366003190112610181576004359063ffffffff60e01b8216809203610181576020916380ac58cd60e01b81149081156106eb575b81156106da575b5015158152f35b6301ffc9a760e01b149050836106d3565b635b5e139f60e01b811491506106cc565b805180835260209291819084018484015e5f828201840152601f01601f1916010190565b600435906001600160a01b038216820361018157565b602435906001600160a01b038216820361018157565b6060906003190112610181576004356001600160a01b038116810361018157906024356001600160a01b0381168103610181579060443590565b6080810190811067ffffffffffffffff8211176107a257604052565b634e487b7160e01b5f52604160045260245ffd5b90601f8019910116810190811067ffffffffffffffff8211176107a257604052565b90604051915f8154908160011c9260018316928315610886575b6020851084146104035784875286939081156108645750600114610820575b5061081e925003836107b6565b565b90505f9291925260205f20905f915b81831061084857505090602061081e928201015f610811565b602091935080600191548385890101520191019091849261082f565b90506020925061081e94915060ff191682840152151560051b8201015f610811565b93607f16936107f2565b9060088210156103055752565b67ffffffffffffffff81116107a257601f01601f191660200190565b6001600160a01b0390911691908215610a86575f828152600260205260409020546001600160a01b0316151580610a7e575b610a6f575f828152600260205260409020546001600160a01b0316928290331515806109da575b50846109a1575b805f52600360205260405f2060018154019055815f52600260205260405f20816bffffffffffffffffffffffff60a01b825416179055847fddf252ad1be2c89b69c2b068fc378daa952ba7f163c4a11628f55a4df523b3ef5f80a46001600160a01b031680830361098957505050565b6364283d7b60e01b5f5260045260245260445260645ffd5b815f52600460205260405f206bffffffffffffffffffffffff60a01b8154169055845f52600360205260405f205f198154019055610919565b90915080610a1e575b156109f05782905f610912565b8284610a0857637e27328960e01b5f5260045260245ffd5b63177e802f60e01b5f523360045260245260445ffd5b503384148015610a4d575b806109e357505f838152600460205260409020546001600160a01b031633146109e3565b505f84815260056020908152604080832033845290915290205460ff16610a29565b638cd22d1960e01b5f5260045ffd5b5060016108eb565b633250574960e11b5f525f60045260245ffd5b9291610aa68183866108b9565b813b610ab3575b50505050565b604051630a85bd0160e11b81523360048201526001600160a01b0394851660248201526044810191909152608060648201529216919060209082908190610afe9060848301906106fc565b03815f865af15f9181610b94575b50610b6157503d15610b5a573d610b228161089d565b90610b3060405192836107b6565b81523d5f602083013e5b80519081610b555782633250574960e11b5f5260045260245ffd5b602001fd5b6060610b3a565b6001600160e01b03191663757a42ff60e11b01610b8257505f808080610aad565b633250574960e11b5f5260045260245ffd5b9091506020813d602011610bd1575b81610bb0602093836107b6565b8101031261018157516001600160e01b03198116810361018157905f610b0c565b3d9150610ba3565b5f818152600260205260409020546001600160a01b0316908115610bfb575090565b637e27328960e01b5f5260045260245ffdfea264697066735822122034cf87865cc83e0efde301ad72cd353ccb12ec77216e775e370c7d757c9f00d164736f6c634300081e0033","linkReferences":{}},"methodIdentifiers":{"approve(address,uint256)":"095ea7b3","balanceOf(address)":"70a08231","getApproved(uint256)":"081812fc","getReceiptData(uint256)":"a039cddf","isApprovedForAll(address,address)":"e985e9c5","name()":"06fdde03","owner()":"8da5cb5b","ownerOf(uint256)":"6352211e","receiptData(uint256)":"27d35db7","safeTransferFrom(address,address,uint256)":"42842e0e","safeTransferFrom(address,address,uint256,bytes)":"b88d4fde","setApprovalForAll(address,bool)":"a22cb465","supportsInterface(bytes4)":"01ffc9a7","symbol()":"95d89b41","tokenURI(uint256)":"c87b56dd","transferFrom(address,address,uint256)":"23b872dd"},"id":43}