{"abi":[{"type":"function","name":"getCompany","inputs":[{"name":"_companyId","type":"address","internalType":"address"}],"outputs":[{"name":"","type":"tuple","internalType":"struct CompanyStorage.Company","components":[{"name":"owner","type":"address","internalType":"address"},{"name":"name","type":"string","internalType":"string"},{"name":"totalSalary","type":"uint256","internalType":"uint256"},{"name":"lockedLiquidity","type":"uint256","internalType":"uint256"},{"name":"rewardBalance","type":"uint256","internalType":"uint256"},{"name":"withdrawnRewards","type":"uint256","internalType":"uint256"},{"name":"status","type":"uint8","internalType":"enum Enums.CompanyStatus"},{"name":"exists","type":"bool","internalType":"bool"}]}],"stateMutability":"view"},{"type":"function","name":"getCompanyCount","inputs":[],"outputs":[{"name":"","type":"uint256","internalType":"uint256"}],"stateMutability":"view"},{"type":"function","name":"getEmployeeCount","inputs":[],"outputs":[{"name":"","type":"uint256","internalType":"uint256"}],"stateMutability":"view"}],"bytecode":{"object":"0x6080806040523460155761032d908161001a8239f35b5f80fdfe6080806040526004361015610012575f80fd5b5f3560e01c90816362bc56e61461007b57508063c2a63e3b1461005e5763f07826401461003d575f80fd5b3461005a575f36600319011261005a576020600154604051908152f35b5f80fd5b3461005a575f36600319011261005a576020600354604051908152f35b3461005a57602036600319011261005a576004356001600160a01b038116919082900361005a5760e0816100af5f936102da565b828152606060208201528260408201528260608201528260808201528260a08201528260c082015201525f525f60205260405f20604051906100f0826102da565b80546001600160a01b03168252604051600182810180545f9281811c929190811680156102d0575b6020841081146102bc5783865290811561029e5750600114610266575b5050819003601f01601f1916810167ffffffffffffffff81118282101761025257604052602083019081526002820154906040840191825260038301549260608501938452600481015460808601908152600660058301549260a0880193845201549460ff86169460c0880194600287101561023e57602096865260ff60e08a019860081c161515885260405198878a5260018060a01b03905116878a01525161010060408a01528051968791826101208c0152016101408a015e5f610140878a0101525160608801525160808701525160a08601525160c08501525190600282101561023e5761014092849260e0840152511515610100830152601f80199101168101030190f35b634e487b7160e01b5f52602160045260245ffd5b634e487b7160e01b5f52604160045260245ffd5b9091505f5260205f205f905b8282106102885750602091508201018480610135565b6001816020925483858801015201910190610272565b9150506020925060ff191682840152151560051b8201018480610135565b634e487b7160e01b5f52602260045260245ffd5b92607f1692610118565b610100810190811067ffffffffffffffff8211176102525760405256fea26469706673582212204ee34f9ab061c2d243e0457e099f34b83bd1d7fe5ab4b87a8de5a18345a1d1cd64736f6c634300081e0033","linkReferences":{}},"methodIdentifiers":{"getCompany(address)":"62bc56e6","getCompanyCount()":"f0782640","getEmployeeCount()":"c2a63e3b"},"id":47}