{"abi":[{"type":"function","name":"getCompany","inputs":[{"name":"_companyId","type":"address","internalType":"address"}],"outputs":[{"name":"","type":"tuple","internalType":"struct CompanyStorage.Company","components":[{"name":"owner","type":"address","internalType":"address"},{"name":"name","type":"string","internalType":"string"},{"name":"totalSalary","type":"uint256","internalType":"uint256"},{"name":"lockedLiquidity","type":"uint256","internalType":"uint256"},{"name":"rewardBalance","type":"uint256","internalType":"uint256"},{"name":"exists","type":"bool","internalType":"bool"}]}],"stateMutability":"view"},{"type":"function","name":"getCompanyCount","inputs":[],"outputs":[{"name":"","type":"uint256","internalType":"uint256"}],"stateMutability":"view"},{"type":"function","name":"getEmployeeCount","inputs":[],"outputs":[{"name":"","type":"uint256","internalType":"uint256"}],"stateMutability":"view"}],"bytecode":{"object":"0x608080604052346015576102cc908161001a8239f35b5f80fdfe6080806040526004361015610012575f80fd5b5f3560e01c90816362bc56e61461007b57508063c2a63e3b1461005e5763f07826401461003d575f80fd5b3461005a575f36600319011261005a576020600154604051908152f35b5f80fd5b3461005a575f36600319011261005a576020600354604051908152f35b3461005a57602036600319011261005a576004356001600160a01b038116919082900361005a5760a0816100af5f9361027a565b8281526060602082015282604082015282606082015282608082015201525f525f60205260405f20604051906100e48261027a565b80546001600160a01b03168252604051600182810180549294925f9281811c92919081168015610270575b60208410811461025c5783885290811561023e5750600114610206575b5050839003601f01601f1916830167ffffffffffffffff8111848210176101f257610100926020916040528183019485526002810154906040840191825260038101546060850190815260ff6005600484015493608088019485520154169260a08601931515845260405197889686885260018060a01b03905116868801525160c0604088015280519586918260e08a0152018888015e5f8686018801525160608601525160808501525160a084015251151560c0830152601f01601f19168101030190f35b634e487b7160e01b5f52604160045260245ffd5b9091505f5260205f205f905b828210610228575060209150840101848061012c565b6001816020925483858a01015201910190610212565b9150506020925060ff191682860152151560051b840101848061012c565b634e487b7160e01b5f52602260045260245ffd5b92607f169261010f565b60c0810190811067ffffffffffffffff8211176101f25760405256fea264697066735822122009d7d74302d59cf27a44bbd3cb37d7c485facc7a8a01b2d1f28768706035c1a964736f6c634300081e0033","linkReferences":{}},"methodIdentifiers":{"getCompany(address)":"62bc56e6","getCompanyCount()":"f0782640","getEmployeeCount()":"c2a63e3b"},"id":39}