{"abi":[{"type":"function","name":"getCompanyCount","inputs":[],"outputs":[{"name":"","type":"uint256","internalType":"uint256"}],"stateMutability":"view"},{"type":"function","name":"getEmployee","inputs":[{"name":"_employeeId","type":"address","internalType":"address"}],"outputs":[{"name":"","type":"tuple","internalType":"struct EmployeeStorage.Employee","components":[{"name":"employeeAddress","type":"address","internalType":"address"},{"name":"companyId","type":"address","internalType":"address"},{"name":"name","type":"string","internalType":"string"},{"name":"monthlySalary","type":"uint256","internalType":"uint256"},{"name":"daysWorked","type":"uint256","internalType":"uint256"},{"name":"withdrawnAmount","type":"uint256","internalType":"uint256"},{"name":"exists","type":"bool","internalType":"bool"}]}],"stateMutability":"view"},{"type":"function","name":"getEmployeeCount","inputs":[],"outputs":[{"name":"","type":"uint256","internalType":"uint256"}],"stateMutability":"view"}],"bytecode":{"object":"0x608080604052346015576102f8908161001a8239f35b5f80fdfe6080806040526004361015610012575f80fd5b5f3560e01c90816332648e091461007b57508063c2a63e3b1461005e5763f07826401461003d575f80fd5b3461005a575f36600319011261005a576020600154604051908152f35b5f80fd5b3461005a575f36600319011261005a576020600354604051908152f35b3461005a57602036600319011261005a576004356001600160a01b038116919082900361005a5760c0816100af5f936102a6565b828152826020820152606060408201528260608201528260808201528260a082015201525f52600260205260405f20604051906100eb826102a6565b80546001600160a01b0390811683526001828101549091166020840190815260405160028401805492959391925f9281811c9291908116801561029c575b6020841081146102885783865290811561026a5750600114610232575b5050819003601f01601f191681019067ffffffffffffffff82118183101761021e5761012093602092604052604084019182526003810154606085019081526004820154906080860191825260ff600660058501549460a089019586520154169360c08701941515855260405198899787895260018060a01b039051168789015260018060a01b0390511660408801525160e060608801528051958691826101008a0152018888015e5f8686018801525160808601525160a08501525160c084015251151560e0830152601f01601f19168101030190f35b634e487b7160e01b5f52604160045260245ffd5b9091505f5260205f205f905b8282106102545750602091508201018580610146565b600181602092548385880101520191019061023e565b9150506020925060ff191682840152151560051b8201018580610146565b634e487b7160e01b5f52602260045260245ffd5b92607f1692610129565b60e0810190811067ffffffffffffffff82111761021e5760405256fea2646970667358221220a35f00209c36d75567c85f7ec1d5c8f9c8be02f118f38925a221e0381fbfe08064736f6c634300081e0033","linkReferences":{}},"methodIdentifiers":{"getCompanyCount()":"f0782640","getEmployee(address)":"32648e09","getEmployeeCount()":"c2a63e3b"},"id":48}