{"abi":[{"type":"function","name":"getFeeConfig","inputs":[],"outputs":[{"name":"","type":"tuple","internalType":"struct FeeStorage.FeeConfig","components":[{"name":"platformShare","type":"uint256","internalType":"uint256"},{"name":"companyShare","type":"uint256","internalType":"uint256"},{"name":"investorShare","type":"uint256","internalType":"uint256"},{"name":"feeBps","type":"uint256","internalType":"uint256"}]}],"stateMutability":"view"}],"bytecode":{"object":"0x6080806040523460145760fe90816100198239f35b5f80fdfe608060405260043610156010575f80fd5b5f3560e01c635fbbc0d2146022575f80fd5b346091575f3660031901126091575f606060396095565b8281528260208201528260408201520152608060526095565b5f549081815260015460208201908152600254906040830191825260606003549301928352604051938452516020840152516040830152516060820152f35b5f80fd5b604051906080820182811067ffffffffffffffff82111760b457604052565b634e487b7160e01b5f52604160045260245ffdfea26469706673582212205281ff15f0cfc65392ce86ca1453ad07ff90a52ef77436bde8aa0d982993f38364736f6c634300081e0033","linkReferences":{}},"methodIdentifiers":{"getFeeConfig()":"5fbbc0d2"},"id":53}