{"abi":[{"type":"function","name":"getCompanyCount","inputs":[],"outputs":[{"name":"","type":"uint256","internalType":"uint256"}],"stateMutability":"view"},{"type":"function","name":"getEmployeeCount","inputs":[],"outputs":[{"name":"","type":"uint256","internalType":"uint256"}],"stateMutability":"view"}],"bytecode":{"object":"0x60808060405234601357609c908160188239f35b5f80fdfe60808060405260043610156011575f80fd5b5f3560e01c908163c2a63e3b14604e575063f078264014602f575f80fd5b34604a575f366003190112604a576020600154604051908152f35b5f80fd5b34604a575f366003190112604a576020906003548152f3fea2646970667358221220aa19e115f4c6bb888ed269c77884671b254823b98f1b000c703109ba1dd95ffb64736f6c634300081e0033","linkReferences":{}},"methodIdentifiers":{"getCompanyCount()":"f0782640","getEmployeeCount()":"c2a63e3b"},"id":46}